:020000020000FC
:0200000004C03A
:0200040046C0F4
:100008004AC0789408E00EBF0FEF0DBF0FEF04B998
:100018000FE007B9222721E0D22F20E0C22F21E0EC
:10002800F22F24E6E22F0E9469005A9A5B9A03E0B5
:100038000DBB0FE00093690020E0C22F24E6E22FF9
:100048002081188115B928B92191199115B928B9B4
:100058002191199115B928B92191199115B928B982
:100068002191199115B928B92191199115B928B972
:100078002191199115B928B92191199115B928B962
:10008800C750E7500E945E00DBCF07E0C00F002793
:100098000E9453001895C7500E945300189551E0CC
:1000A8006FEF7FEF7A95F1F76A95E1F75A95D1F7F7
:1000B8000000089551E061E071E07A9599F76A953A
:1000C80089F75A9579F70000089549E9499349E96C
:1000D800499349E9499341E8499349E9499349E9E9
:1000E800499349E9499349E9499343EC49934DEBCD
:1000F80049934DEB499341E849934DEB49934DEBB7
:10010800499343EC49934FEF499347EC499347ECA4
:10011800499347EC499347EC499347EC499347EC9B
:10012800499347EC49934FEF499341E849934DEB85
:1001380049934DEB49934DEB499341E849934DEB76
:1001480049934DEB49934DEB49934BEB49934BEB5B
:1001580049934BEB49934BEB49934BEB49934BEB4F
:10016800499343EC49934FEF499343EC49934BEB45
:1001780049934BEB499347E849934FE949934FEA31
:10018800499347EB49934BEB49934BEB49934BEB23
:1001980049934BEB49934BEB49934BEB49934BEB0F
:1001A800499343EC49934FEF499343EC49934DEB03
:1001B80049934FEB499341EB49934DEB49934DEBF1
:1001C800499343EC49934FEF49934BEB49934BEBDE
:1001D80049934BEB49934BEB49934BEB49934BEBCF
:1001E800499343EC49934FEF499349E9499346EBC7
:1001F800499346EB499346EB49934FEF499346EBB6
:10020800499346EB49934FEF49934BEB49934BEB9B
:1002180049934BEB499343EC499343EC499343ECA3
:1002280049934FEF499348EF419349EF41934AEF80
:1002380041934BEF41934CEF41934DEF41934EEF78
:0802480041934FEF419308952B
:00000001FF
