:020000040000FA
:100000000C9434000C943E000C943E000C943E0082
:100010000C943E000C943E000C943E000C943E0068
:100020000C943E000C943E000C943E000C943E0058
:100030000C943E000C943E000C943E000C943E0048
:100040000C943E000C943E000C943E000C943E0038
:100050000C943E000C943E000C943E000C943E0028
:100060000C943E000C943E0011241FBECFEFD8E04C
:10007000DEBFCDBF0E94C0000C946E010C94000046
:100080002A9A2B98089501978730910560F4FC0116
:10009000E45BFF4F0C9468015F006B007700830006
:1000A0009300A200B1002C9A2FEF83ED90E3215032
:1000B00080409040E1F700C000002C9808952D9AF0
:1000C0002FEF83ED90E3215080409040E1F700C096
:1000D00000002D9808952E9A2FEF89E698E121507F
:1000E00080409040E1F700C000002E9808952F9ABC
:1000F0002FEF83ED90E3215080409040E1F700C066
:1001000000002F98089585B1806585B92FEF83EDA4
:1001100090E3215080409040E1F700C0000085B19D
:100120008F7A85B9089585B1806985B92FEF83ED00
:1001300090E3215080409040E1F700C0000085B17D
:100140008F76EFCF85B1806685B92FEF83ED90E391
:10015000215080409040E1F700C0000085B18F79C8
:10016000E0CF85B1806A85B92FEF83ED90E3215010
:1001700080409040E1F700C0000085B18F75D1CF7D
:1001800084B18C6F84B98AB1837F8AB98BB18C605A
:100190008BB90E94400081E090E00E94430082E021
:1001A00090E00E94430087E090E00E94430086E0D8
:1001B00090E00E94430083E090E00E94430081E0D1
:1001C00090E00E94430085E090E00E94430087E0B9
:1001D00090E00E94430090E080E00E94430083E0B2
:1001E00090E00E94430084E090E00E94430085E09C
:1001F00090E00E94430082E090E00E94430090E083
:1002000080E00E94430086E090E00E94430084E08A
:1002100090E00E94430082E090E00E94430085E06D
:1002200090E00E94430083E090E00E94430083E05E
:1002300090E00E94430087E090E00E94430082E04B
:1002400090E00E94430084E090E00E94430086E03A
:1002500090E00E94430087E090E00E94430090E01D
:1002600080E00E94430090E080E00E9443002A98D2
:100270002B9A81E090E00E94430081E090E00E9490
:10028000430081E090E00E94430081E090E00E9402
:10029000430081E090E00E9443000E94400082E021
:1002A00090E00E94430081E090E00E94430083E0E0
:1002B00090E00E94430090E080E00E94430082E0D2
:1002C00090E00E9443002A982B9A90E080E00895E5
:1002D000EE0FFF1F0590F491E02D0994F894FFCFE5
:107E0000112484B714BE81FFF0D085E080938100F7
:107E100082E08093C00088E18093C10086E0809377
:107E2000C20080E18093C4008EE0C9D0259A86E02C
:107E300020E33CEF91E0309385002093840096BBD3
:107E4000B09BFECF1D9AA8958150A9F7CC24DD24C4
:107E500088248394B5E0AB2EA1E19A2EF3E0BF2EE7
:107E6000A2D0813461F49FD0082FAFD0023811F036
:107E7000013811F484E001C083E08DD089C08234E0
:107E800011F484E103C0853419F485E0A6D080C0E4
:107E9000853579F488D0E82EFF2485D0082F10E0AE
:107EA000102F00270E291F29000F111F8ED06801E7
:107EB0006FC0863521F484E090D080E0DECF843638
:107EC00009F040C070D06FD0082F6DD080E0C81688
:107ED00080E7D80618F4F601B7BEE895C0E0D1E017
:107EE00062D089930C17E1F7F0E0CF16F0E7DF06D8
:107EF00018F0F601B7BEE89568D007B600FCFDCFD4
:107F0000A601A0E0B1E02C9130E011968C91119780
:107F100090E0982F8827822B932B1296FA010C0160
:107F200087BEE89511244E5F5F4FF1E0A038BF0790
:107F300051F7F601A7BEE89507B600FCFDCF97BE46
:107F4000E89526C08437B1F42ED02DD0F82E2BD052
:107F50003CD0F601EF2C8F010F5F1F4F84911BD097
:107F6000EA94F801C1F70894C11CD11CFA94CF0C13
:107F7000D11C0EC0853739F428D08EE10CD085E9AC
:107F80000AD08FE07ACF813511F488E018D01DD067
:107F900080E101D065CF982F8091C00085FFFCCF94
:107FA0009093C60008958091C00087FFFCCF809118
:107FB000C00084FD01C0A8958091C6000895E0E648
:107FC000F0E098E1908380830895EDDF803219F02E
:107FD00088E0F5DFFFCF84E1DECF1F93182FE3DFCA
:107FE0001150E9F7F2DF1F91089580E0E8DFEE27F6
:047FF000FF270994CA
:027FFE00040479
:00000001FF
