:100000000C9442000C94D0180C94D0180C94D01876
:100010000C94D0180C94D0180C94D0180C94D018C0
:100020000C94D0180C94D0180C94D0180C94D018B0
:100030000C94D0180C94D0180C94D0180C94D018A0
:100040000C94D0180C94D0180C94D0180C94D01890
:100050000C94D0180C94D0180C94D0180C94D01880
:100060000C94D0180C94D018E00DF00D000E100E6A
:10007000410E6B0E950EBF0E070F070FC80ED80E60
:10008000E80EF80E11241FBECFEFD8E0DEBFCDBFC3
:0C0090000E94080F0C946318F894FFCF36
:10009C002A202A202A202A202A202A202A202A2004
:1000AC002A202A202A202A202A202A202A202A20F4
:1000BC002A202A202A202A202A202A202A202A20E4
:1000CC002A202A202A202A202A202A202A202A20D4
:1000DC002A202A202A202A200A00200A00426965A8
:1000EC006E76656E69646F20616C2070726F6772DA
:1000FC00616D61207061726120646962756A617200
:10010C0020736F62726520656C20506C6F7474651F
:10011C007220636F6E2041546D65676133323870A5
:10012C000D0A0053656C656363696F6E6520756EAF
:10013C0061206465206C6173207369677569656EF5
:10014C00746573206F7063696F6E65733A200A0073
:10015C00312D20446962756A617220547269E16EB6
:10016C0067756C6F200A00322D20446962756A61D4
:10017C00722043ED7263756C6F200A00332D20449E
:10018C006962756A6172204372757A200A00342D97
:10019C0020446962756A6172205A6F72726F200A0C
:1001AC0000352D20446962756A617220466C6F724D
:1001BC00200A00362D20446962756A6F20706572C2
:1001CC00736F6E616C697A61646F200A00446962B6
:1001DC00756A616E646F20547269E16E67756C6F3D
:1001EC003A200A00547269E16E67756C6F2046699B
:1001FC006E616C697A61646F3A200A0044696275B9
:10020C006A616E646F2043ED7263756C6F3A200AFD
:10021C000043ED7263756C6F2046696E616C697A90
:10022C0061646F3A200A00446962756A616E646F9A
:10023C00204372757A3A200A004372757A20466917
:10024C006E616C697A61646F3A200A004469627568
:10025C006A616E646F205A6F72726F3A200A005A8C
:10026C006F72726F2046696E616C697A61646F3A65
:10027C00200A00446962756A616E646F20466C6F77
:10028C00723A200A00466C6F722046696E616C6986
:10029C007A61646F3A200A004C6561206C617320AE
:1002AC007369677569656E74657320696E737472B2
:1002BC00756363696F6E6573207061726120646928
:1002CC0062756A61723A200A00772D204D6F76654F
:1002DC007220656C2070756E7465726F2068616336
:1002EC006961206172726962613A200A00732D2083
:1002FC004D6F76657220656C2070756E7465726FCB
:10030C00206861636961206162616A6F3A200A004A
:10031C00642D204D6F76657220656C2070756E743F
:10032C0065726F206861636961206C61206465721D
:10033C00656368613A200A00612D204D6F76657205
:10034C0020656C2070756E7465726F2068616369CE
:10035C0061206C6120697A717569657264613A20FB
:10036C000A00302D20566F6C76657220616C206D02
:10037C00656EFA207072696E636970616C3A200A5E
:10038C000043656E7472616E646F2E2E2E20004CCD
:10039C006973746F210A00770A00730A00640A00FB
:0303AC00610A00E3
:1003AF0083F9A200444E6E00FC291500D157270097
:1003BF00DD34F50062DBC0003C99950041904300AD
:1003CF006351FE00BBDEAB00B761C5003A6E24007F
:1003DF00D24D42004906E00009EA2E001C92D100DE
:1003EF00EB1DFE0029B11C00E83EA700F535820089
:1003FF0044BB2E009CE98400B4267000417E5F0050
:10040F00D6913900538339009CF439008B5F8400F7
:10041F0028F9BD00F81F3B00DEFF97000F9805007D
:10042F00112FEF000A5A8B006D1F6D00CF7E360023
:10043F0009CB2700464FB7009E663F002DEA5F00AD
:10044F00BA277500E5EBC7003D7BF100F7390700D0
:10045F0092528A00FB6BEA001FB15F00085D8D00AE
:10046F00300356007BFC4600F0AB6B0020BCCF0086
:10047F0036F49A00E3A91D005E619100081BE600A7
:10048F0085996500A0145F008D40680080D8FF003B
:10049F0027734D0006063100CA561500C9A8730010
:0804AF007BE260006B8CC000D1
:1004B700DA0FC93F6821A233C434C2278B62C61B37
:1004C7001CDC800F0229D10314000000000000008B
:0804D70003000400040006000C
:1004E000A1E7B1E0E6E7F2E00C949C17CB59DE4FB0
:1004F0008883C556D140C759DE4F9883C956D1402D
:10050000C35ADE4F79836883CD55D1407A01C75BEA
:10051000DE4F39832883C954D140CD59DE4F19832A
:100520000883C356D140C801880F991F092E000CBB
:10053000AA0B89529B4FAF4FFC015A2F0E9476188D
:100540004B01770FAA08BB08CB5ADE4F88829982ED
:10055000AA82BB82C555D140C90101975C01990FA0
:10056000CC08DD08CF5ADE4FA882B982CA82DB826E
:10057000C155D140C701039768E170E00E94E917B7
:1005800077FD0DC04B01770FAA08BB08C75ADE4F95
:1005900088829982AA82BB82C955D14008C0C75AB5
:1005A000DE4F188219821A821B82C955D140A8EEEB
:1005B000BFEFC75ADE4F288139814A815B81C95517
:1005C000D1402F5F3F4F4F4F5F4F0E9471188701FF
:1005D000FF0C220B330B5B016C01A00EB11EC21E7F
:1005E000D31ECF5BDE4FA882B982CA82DB82C154A0
:1005F000D140C75ADE4F488059806A807B80C955F8
:10060000D140CF5ADE4FC880D980EA80FB80C155E7
:10061000D1404C185D086E087F08CB5ADE4F8880A9
:100620009980AA80BB80C555D1408C0C9D1CAE1C06
:10063000BF1CCB5BDE4F88829982AA82BB82C554E5
:10064000D1408E010F551F4F6201CC0CDD1CCC0C2C
:10065000DD1CC601DD0CAA0B9C014A2F21553C4F25
:100660004F4F6901E42E812C912C5401CB5BDE4F5E
:10067000288139814A815B81C554D14028153905CB
:100680004A055B0514F1D501C401840D951DA61D15
:10069000B71DB7FD07C0F6015E2D0E9441180E94EC
:1006A000921603C060E070E0CB01D8016D937D939A
:1006B0008D939D938D01BFEF8B1A9B0AAB0ABB0AEA
:1006C000E4E0CE0ED11CE11CD1CF8E010F5F1F4F95
:1006D000C35BDE4F19830883CD54D140C75BDE4F27
:1006E00088809980C954D140C401990CAA0BBB0BD6
:1006F0000197A109B1095C01AA0CBB1CAA0CBB1C87
:10070000C15ADE4FB982A882CF55D140212C312C5D
:10071000412C512C3201CB5ADE4F88809980AA801F
:10072000BB80C555D14084149504A604B7040CF4CD
:1007300084C0CB59DE4F9880C556D140CB5BDE4F8D
:100740009882C554D140C759DE4FA880C956D140C0
:10075000CA5BDE4FA882C654D140C15ADE4FC88062
:10076000D980CF55D140C20CD31CC959DE4FD98294
:10077000C882C756D14000E010E0812C912C540172
:10078000C12CD12C7601CF5ADE4F288139814A8184
:100790005B81C155D1402C153D054E055F05A4F187
:1007A000C959DE4FE881F981C756D140E00FF11FEA
:1007B00021EA30E02C0F3D1FE20FF31FCB5BDE4F31
:1007C000A881B981C554D1402D913D914D915D9144
:1007D000CB5BDE4FB983A883C554D1406081718162
:1007E000828193810E94C9189B01AC01C501B401AB
:1007F0000E948D184B015C01BFEFCB1ADB0AEB0A9C
:10080000FB0A04501109BFCFC35BDE4FA881B98139
:10081000CD54D1408D929D92AD92BD92C35BDE4F7F
:10082000B983A883CD54D140BFEF4B1A5B0A6B0A42
:100830007B0AE4E02E0E311C6ECFCB5ADE4F88814E
:100840009981AA81BB81C555D1400197A109B10900
:100850007C01EE0CFF1CEE0CFF1CC459DE4FF9822C
:10086000E882CC56D140CB5ADE4F488059806A800E
:100870007B80C555D140C75BDE4F88819981C954C3
:10088000D14001974C01990FAA08BB08C259DE4F0D
:1008900088829982AA82BB82CE56D1405201AA0C8C
:1008A000BB1CAA0CBB1CC35BDE4FB982A882CD5413
:1008B000D140E1E0F0E0EC0FFD1FEA0DFB1DC08030
:1008C000D180E280F3801E0101EF200E311CD301A4
:1008D000C2010197A109B1094C01880C991C880C2F
:1008E000991CC15ADE4F99828882CF55D140CB5B8B
:1008F000DE4F39822882C554D1405301420100E0C5
:1009000010E0181419041A041B040CF059C020E05C
:1009100030E040E853E3C701B6010E94C9180E94C5
:1009200093180E949216C75BDE4F688379838A838F
:100930009B83C954D14020E030E040E85BE40E9452
:10094000C9189B01AC01C701B6010E948C180E9416
:100950009318CB5BDE4FA881B981C554D1406D930C
:100960007D938D939D93CB5BDE4FB983A883C55454
:10097000D140B1E08B1A9108A108B108C15ADE4FED
:10098000E881F981CF55D140E00FF11FCC24C39409
:10099000D12CCC0EDD1EEC0DFD1D2081318142815C
:1009A0005381C75BDE4F688179818A819B81C954FD
:1009B000D1400E948D186B017C0104501109A1CF18
:1009C000CF5BDE4F08811981C154D140A801C70116
:1009D000B6010E94E6156B017C0120E030E040E0AA
:1009E0005EE30E94C9180E948B1220E030E040E0D4
:1009F00051E40E94C9189B01AC01C701B6010E94D5
:100A00008C186B017C010E949318C75BDE4F6883D2
:100A100079838A839B83C954D1400E9492169B019B
:100A2000AC01C701B6010E948C186B017C01CF5B41
:100A3000DE4F88809980AA80BB80C154D1401814B1
:100A400019041A041B040CF05AC0D301C201019707
:100A5000A109B109FC01EE0FFF1FEE0FFF1F71EF9F
:100A6000A72EB12CAC0EBD1EEA0DFB1D808191811D
:100A7000A281B38128E130E028193909AC01BD0118
:100A8000022E04C075956795579547950A94D2F73D
:100A9000C75BDE4F88809980AA80BB80C954D14053
:100AA000840E951EA61EB71EC75BDE4F88829982F4
:100AB000AA82BB82C954D14004C0440F551F661F8F
:100AC000771F2A95D2F7841B950BA60BB70B808353
:100AD0009183A283B38327E130E0CF5BDE4FA88010
:100AE000B980C154D1402A193B094C015D0104C0B1
:100AF000B594A794979487942A95D2F728C0CF5B92
:100B0000DE4F88809980AA80BB80C154D14089285B
:100B10008A288B2891F5D301C2010197A109B10957
:100B2000880F991F880F991FE1EFF0E0EC0FFD1F70
:100B3000E80FF91F80819181A281B3814C015D0191
:100B400057E1B594A794979487945A95D1F7CB5BC6
:100B5000DE4F88829982AA82BB82C554D140CB5B8A
:100B6000DE4F88809980AA80BB80C554D14018147C
:100B700019041A041B04FCF0E2C020E030E040E05D
:100B80005FE30E94C01887FF09C0CB5BDE4F18826D
:100B900019821A821B82C554D140D1C032E0832E03
:100BA000912CA12CB12CCB5BDE4F88829982AA823A
:100BB000BB82C554D140C75BDE4F288139814A8151
:100BC0005B81C954D1402F5F3F4F4F4F5F4FC75B91
:100BD000DE4F288339834A835B83C954D14080E048
:100BE00090E0DC01812C912C540184159505A6051B
:100BF000B705ACF5F10140815181628173818114A7
:100C00009104A104B10481F44115510561057105F8
:100C1000F9F0812C912C5401B394841A950AA60AF8
:100C2000B70AB501A4010CC088248A94982CA82C7A
:100C3000B12C841A950AA60AB70AB501A401F101DC
:100C40004083518362837383812C912C540183945C
:100C50000196A11DB11DF4E02F0E311CC6CFCF5B54
:100C6000DE4F288139814A815B81C154D1401216FF
:100C7000130614061506CCF5213031054105510542
:100C8000D9F0223031054105510579F5D301C20172
:100C90000197A109B109880F991F880F991FE1EFEA
:100CA000F0E0EC0FFD1FE80FF91F408151816281D8
:100CB00073816F73772715C0D301C2010197A10912
:100CC000B109880F991F880F991FE1EFF0E0EC0F31
:100CD000FD1FE80FF91F40815181628173816F7799
:100CE00077274083518362837383CB5BDE4F4881D8
:100CF00059816A817B81C554D140423051056105DB
:100D00007105E9F4A701960160E070E080E89FE3D7
:100D10000E948C186B017C0189288A288B2879F025
:100D2000A80160E070E080E89FE30E94E6159B0167
:100D3000AC01C701B6010E948C186B017C0120E058
:100D400030E0A901C701B6010E94BB188111CFC1D3
:100D50007301620151E0C51AD108E108F108B3013D
:100D6000A20120E030E080E090E0DC014150510938
:100D700061097109CB5ADE4F88809980AA80BB80B7
:100D8000C555D140481559056A057B05D4F0C15AAF
:100D9000DE4FE881F981CF55D140E20FF31F11EF0B
:100DA000812E912C8C0E9D1EE80DF91D8080918066
:100DB000A280B38088299929AA29BB292450310906
:100DC000D5CF892B8A2B8B2B09F046C180E090E090
:100DD00041E050E060E070E00497C459DE4FE881E4
:100DE000F981CC56D140E80FF91F21EFA22EB12C8A
:100DF000AC0EBD1EEA0DFB1D0481158126813781D5
:100E0000012B022B032B29F44F5F5F4F6F4F7F4F56
:100E1000E3CF530142010FEF801A900AA00AB00AF3
:100E2000C75ADE4FC880D980EA80FB80C955D140BF
:100E3000C80CD91CEA1CFB1CCC0CDD1CCC0CDD1C2A
:100E4000C601DD0CAA0B8C012A2F01551C4F2F4F18
:100E50006801E22EC259DE4F88819981AA81BB8147
:100E6000CE56D140880D991DAA1DBB1D8C01000FC7
:100E7000111F000F111FC659DE4F19830883CA5670
:100E8000D1408401000F111F000F111FC959DE4FFF
:100E900019830883C756D140212C312CD301C201BC
:100EA000840F951FA61FB71FC15ADE4F88839983F1
:100EB000AA83BB83CF55D140C15ADE4F0881198127
:100EC0002A813B81CF55D140081519052A053B05DC
:100ED0000CF4BFC0C659DE4F08811981CA56D140F3
:100EE000020D131DC35BDE4F19830883CD54D1401F
:100EF00001EA10E00C0F1D1FC35BDE4F2881398112
:100F0000CD54D140020F131FF6015E2D0E944118EF
:100F10000E949216D8016D937D938D939C931397A5
:100F2000CB59DE4FF880C556D140CB5BDE4FF882FF
:100F3000C554D140C759DE4FF880C956D140CA5B6D
:100F4000DE4FF882C654D140C75BDE4F188219824B
:100F50001A821B82C954D14000E010E0412C512C70
:100F60003201C75BDE4F488159816A817B81C95458
:100F7000D140CF5ADE4F88819981AA81BB81C1556A
:100F8000D14084179507A607B7070CF443C0C35B8D
:100F9000DE4FE881F981CD54D140E00FF11F21EA05
:100FA00030E02C0F3D1FE20FF31FCB5BDE4FA8811B
:100FB000B981C554D1402D913D914D915D91CB5B4F
:100FC000DE4FB983A883C554D1406081718182818D
:100FD00093810E94C9189B01AC01C301B2010E9418
:100FE0008D182B013C01C75BDE4F288139814A8176
:100FF0005B81C954D1402F5F3F4F4F4F5F4FC75B5D
:10100000DE4F288339834A835B83C954D14004501F
:101010001109A7CFC959DE4FE881F981C756D140E0
:10102000E20DF31DA1E0B0E0AC0FBD1FEA0FFB1F06
:101030004082518262827382BFEF8B1A9B0AAB0A95
:10104000BB0AE4E02E0E311CF4E0CF0ED11CE11CF3
:1010500033CF2801390122CCCF5BDE4F2881398183
:101060004A815B81C154D14028513109410951095C
:10107000CF5BDE4F288339834A835B83C154D140E1
:10108000C601880F991F880F991F2601370120E09C
:1010900030E024503109F901E80FF91F61EF70E0E9
:1010A0006C0F7D1FE60FF71F4481558166817781A4
:1010B000452B462B472B09F09EC041E0441A5108AE
:1010C00061087108CF5BDE4F488159816A817B815D
:1010D000C154D1404851510961097109CF5BDE4FBC
:1010E000488359836A837B83C154D140D2CFCF5B7D
:1010F000DE4F48815981C154D140519541955109E4
:10110000C701B6010E94E6156B017C0120E030E0CA
:1011100040E85BE40E94C01887FD57C020E030E043
:1011200040E853E3C701B6010E94C9180E94931812
:101130000E9492164B015C0101EF10E00C0F1D1F85
:10114000C35BDE4F88819981CD54D140080F191FB0
:1011500020E030E040E85BE4C501B4010E94C9181A
:101160009B01AC01C701B6010E948C180E94931824
:10117000D8016D937D938D939C931397BFEF4B1A7A
:101180005B0A6B0A7B0ACF5BDE4F088119812A81DB
:101190003B81C154D140085E1F4F2F4F3F4FCF5B63
:1011A000DE4F088319832A833B83C154D1408201D7
:1011B000000F111F000F111F21EF30E02C0F3D1FFA
:1011C000020F131FC501B4010EC001EF10E00C0F98
:1011D0001D1FC35BDE4F88809980CD54D140080D20
:1011E000191DC701B6010E949318D8016D937D9314
:1011F0008D939C931397CF5BDE4F48815981C154E7
:10120000D14060E070E080E89FE30E94E6154B016A
:101210005C01C15ADE4F59824882CF55D14012013C
:10122000220C331C220C331C7301620100E010E01D
:10123000F7FC3CC0C801820D931DE1E0F0E0EC0F2B
:10124000FD1FE80FF91FCF5BDE4FF983E883C15420
:10125000D140E1EFF0E0EC0FFD1FE80FF91F6081D6
:101260007181828193810E949216A50194010E944E
:10127000C918CF5BDE4FA881B981C154D1406D93AD
:101280007D938D939C93139720E030E040E853E3E7
:10129000C501B4010E94C9184B015C01B1E0CB1A31
:1012A000D108E108F10804501109C2CF8E010F5A8C
:1012B0001F4FC35BDE4F19830883CD54D140CF5BF2
:1012C000DE4F188219821A821B82C154D140CF5A34
:1012D000DE4F19821882C155D140D301C201CF5BC4
:1012E000DE4F88809980AA80BB80C154D140881984
:1012F0009909AA09BB09B7FDB2C077EB872E74E044
:10130000972E70E0A72E6101CF5ADE4FE880F9805A
:10131000C155D140CE18DF08CB59DE4FD982C882E3
:10132000C556D14000E010E0C75ADE4F188219823E
:101330001A821B82C955D140C12CD12C7601CB5ABF
:10134000DE4F688179818A819B81C555D1406C15BA
:101350007D058E059F050CF447C0CF5BDE4F88816D
:101360009981AA81BB81C154D1408C159D05AE05E0
:10137000BF05D4F1CB59DE4FA881B981C556D14004
:10138000A00FB11F21E030E02C0F3D1FA20FB31FB3
:10139000F4015A2D0E9441189B01AC016D917D9181
:1013A0008D919C910E94C9189B01AC01C75ADE4FD8
:1013B000688179818A819B81C955D1400E948D18AD
:1013C000C75ADE4F688379838A839B83C955D1408E
:1013D0003FEFC31AD30AE30AF30A44E0840E911CD8
:1013E000A11C0C5F1F4FABCFC35BDE4FA881B9813F
:1013F000CD54D140C75ADE4F88809980AA80BB80E7
:10140000C955D1408D929D92AD92BD92C35BDE4F86
:10141000B983A883CD54D140CF5ADE4F08811981BA
:10142000C155D1400C5F1F4FCF5ADE4F198308833F
:10143000C155D140CF5BDE4F288139814A815B8124
:10144000C154D1402F5F3F4F4F4F5F4FCF5BDE4FB7
:10145000288339834A835B83C154D1403ECFCD5921
:10146000DE4F08811981C356D1400330110574F451
:10147000013011050CF048C00115110509F041C2F9
:1014800000E010E060E070E0CB0146C0CD59DE4FD7
:1014900008811981C356D1400330110509F031C2CA
:1014A00051E5852E912C8C0E9D1E820C931CCF5BDA
:1014B000DE4F99828882C154D14014012CEFC15A69
:1014C000DE4F08811981CF55D14020034001219F73
:1014D000900C1124CD59DE4F99828882C356D14099
:1014E000D301C2010197A109B1095C01AA0CBB1C7F
:1014F000AA0CBB1CC75ADE4FB982A882C955D1407D
:10150000810173016201B0C07301620100E010E06B
:1015100060E070E0CB0135C077FC18C0F101E00F4E
:10152000F11F41E5C42ED12CCC0EDD1EEC0DFD1DAE
:1015300020813181428153810E948D1821E0421A1D
:1015400051086108710804501109E6CFCB5BDE4FEA
:1015500088809980AA80BB80C554D140DC01CB0132
:1015600081149104A104B10409F0B058C35ADE4FAC
:10157000E881F981CD55D14080839183A283B383E3
:10158000C0C1F7FC18C0F101E00FF11F31E5832E57
:10159000912C8C0E9D1EE80DF91D20813181428118
:1015A00053810E948D1821E0C21AD108E108F10888
:1015B00004501109E6CFCB5BDE4F88809980AA806A
:1015C000BB80C554D1408B019C0189288A288B2877
:1015D00009F03058C35ADE4FA881B981CD55D140AA
:1015E0000D931D932D933C9313979B01AC018E019A
:1015F0000F5A1F4FF80161917191819191918F0163
:101600000E948C18C12CD12C7601C3944C145D041B
:101610006E047F0474F0D8012D913D914D915D9140
:101620008D010E948D18BFEFCB1ADB0AEB0AFB0A73
:10163000EDCFCB5BDE4F88809980AA80BB80C554FC
:10164000D140DC01CB0181149104A104B10409F063
:10165000B058C35ADE4FE881F981CD55D14084831B
:101660009583A683B7834DC11C141D041E041F045B
:101670000CF06DC0F1E0CF1AD108E108F108CD59A6
:10168000DE4F88819981C356D140800F911FC75A80
:10169000DE4F88809980C955D140880E991ECF5A57
:1016A000DE4F99828882C155D140D4018D909D90A2
:1016B000AD90BC90CB5ADE4F88829982AA82BB82C1
:1016C000C555D140F80180809180A280B380A501EA
:1016D0009401CB5ADE4F688179818A819B81C555FF
:1016E000D1400E948D18C35BDE4F688379838A8363
:1016F0009B83CD54D1409B01AC01CB5ADE4F688116
:1017000079818A819B81C555D1400E948C18A501A1
:1017100094010E948D18D8016D937D938D939C93B5
:101720001397C35BDE4F88809980AA80BB80CD541D
:10173000D140CF5ADE4FA881B981C155D1408D9299
:101740009D92AD92BC921397045011098DCF7301F5
:101750006201E2E0CE16D104E104F1040CF463C0AE
:10176000B1E0CB1AD108E108F108CD59DE4F08816C
:101770001981C356D140020D131DC75ADE4F888010
:101780009980C955D140080D191DD8018D909D90A3
:10179000AD90BC90CB5ADE4F88829982AA82BB82E0
:1017A000C555D140F10180809180A280B380A50110
:1017B0009401CB5ADE4F688179818A819B81C5551E
:1017C000D1400E948D18CF5ADE4F688379838A8377
:1017D0009B83C155D1409B01AC01CB5ADE4F688140
:1017E00079818A819B81C555D1400E948C18A501C1
:1017F00094010E948D18D1016D937D938D939C93DC
:101800001397CF5ADE4F88809980AA80BB80C1553C
:10181000D140D8018D929D92AD92BC921397B4E0C5
:101820002B1A310896CF00E010E060E070E0CB01A9
:1018300022E04216510461047104B4F0CF5BDE4F24
:10184000E881F981C154D140E00FF11F208131813D
:10185000428153810E948D18F1E04F1A51086108AE
:10186000710804501109E4CFCB5BDE4F888099806A
:10187000AA80BB80C554D14065960CAD1DAD2EAD80
:101880003FAD659781149104A104B104E9F4C35AF2
:10189000DE4FA881B981CD55D1400D931D932D9375
:1018A0003C93139769960CAD1DAD2EAD3FAD699776
:1018B000FD01048315832683378318966D937D93EA
:1018C0008D939C931B971DC03058C35ADE4FE881FF
:1018D000F981CD55D14000831183228333836996EA
:1018E0000CAD1DAD2EAD3FAD699730580483158307
:1018F00026833783DC01CB01B05880879187A2878C
:10190000B387C75BDE4F88819981C954D140877006
:0C1910009927CF58DE4FE2E10C94B81785
:10191C000E943F1681E090E00E9422182FEF8DE389
:10192C0099E4215080409040E1F700C0000085E030
:10193C0090E00E94D70D85E090E00E94D70D85E0E5
:10194C0090E00E94D70D85E090E00E94D70D85E0D5
:10195C0090E00E94D70D80E090E00E94D70D87E0C8
:10196C0090E00E94D70D86E090E00E94D70D86E0B3
:10197C0090E00E94D70D81E090E00E94D70D81E0AD
:10198C0090E00E94D70D81E090E00E94D70D87E097
:10199C0090E00E94D70D87E090E00E94D70D83E085
:1019AC0090E00E94D70D83E090E00E94D70D87E075
:1019BC0090E00E94D70D80E090E00E94D70D80E06F
:1019CC0090E00E94D70D84E090E00E94D70D80E05B
:1019DC0090E00E94D70D85E090E00E94D70D85E045
:1019EC0090E00E94D70D80E090E00E94D70D80E03F
:1019FC0090E00E94D70D84E090E00E94D70D80E02B
:101A0C0090E00E94D70D84E090E00E94D70D84E016
:101A1C0090E00E94D70D82E090E00E94D70D86E006
:101A2C0090E00E94D70D84E090E00E94D70D82E0F8
:101A3C0090E00E94D70D82E090E00E94D70D82E0EA
:101A4C0090E00E94D70D82E090E00E94D70D86E0D6
:101A5C0090E00E94D70D84E090E00E94D70D82E0C8
:101A6C0090E00E94D70D82E090E00E94D70D87E0B5
:101A7C0090E00E94D70D81E090E00E94D70D81E0AC
:101A8C0090E00E94D70D81E090E00E94D70D86E097
:101A9C0090E00E94D70D81E090E00E94D70D81E08C
:101AAC0090E00E94D70D81E090E00E94D70D87E076
:101ABC0090E00E94D70D82E090E00E94D70D82E06A
:101ACC0090E00E94D70D86E090E00E94D70D86E052
:101ADC0090E00E94D70D86E090E00E94D70D81E047
:101AEC0090E00E94D70D83E090E00E94D70D83E038
:101AFC0090E00E94D70D83E090E00E94D70D87E024
:101B0C0090E00E94D70D87E090E00E94D70D81E015
:101B1C0090E00E94D70D81E090E00E94D70D85E007
:101B2C0090E00E94D70D85E090E00E94D70D83E0F5
:101B3C0090E00E94D70D81E090E00E94D70D81E0EB
:101B4C0090E00E94D70D85E090E00E94D70D85E0D3
:101B5C0090E00E94D70D80E090E00E94D70D80E0CD
:101B6C0090E00E94D70D80E090E00E94D70D80E0BD
:101B7C0090E00E94D70D84E090E00E94D70D84E0A5
:101B8C0090E00E94D70D80E090E00E9422182FEF89
:101B9C008DE399E4215080409040E1F700C00000B3
:021BAC0008959A
:101BAE008E30910508F02CC1FC01EC5CFF4F0C94BB
:101BBE00B5188BB180618BB92FEF43ED80E32150C7
:101BCE0040408040E1F700C000008BB18F7E8BB9A2
:101BDE0008958BB180628BB99FEF23ED40E3915056
:101BEE0020404040E1F700C000008BB18F7D8BB9E3
:101BFE0008958BB180648BB98FEF93ED20E3815004
:101C0E0090402040E1F700C000008BB18F7B8BB974
:101C1E0008958BB180688BB94FEF83ED90E34150FF
:101C2E0080409040E1F700C000008BB18F778BB9F8
:101C3E0008958BB18F7B8BB98BB180618BB94FEFD0
:101C4E0080E792E0415080409040E1F700C00000F4
:101C5E008BB18F7E8BB98BB180648BB94FEF80E7E0
:101C6E0092E0415080409040E1F700C000002F5FAD
:101C7E003F4F02C020E030E02A303105D4F28BB164
:101C8E008F7A8BB908958BB18F778BB98BB18061B9
:101C9E008BB94FEF80E792E0415080409040E1F7E2
:101CAE0000C000008BB18F7E8BB98BB180688BB971
:101CBE004FEF80E792E0415080409040E1F700C046
:101CCE0000002F5F3F4F02C020E030E02A30310588
:101CDE00D4F28BB18F768BB908958BB18F7B8BB984
:101CEE008BB180628BB94FEF80E792E0415080401C
:101CFE009040E1F700C000008BB18F7D8BB98BB1A6
:101D0E0080648BB94FEF80E792E041508040904065
:101D1E00E1F700C000002F5F3F4F02C020E030E02F
:101D2E002A303105D4F28BB18F798BB908958BB1EE
:101D3E008F778BB98BB180628BB94FEF80E792E0D2
:101D4E00415080409040E1F700C000008BB18F7D84
:101D5E008BB98BB180688BB94FEF80E792E0415021
:101D6E0080409040E1F700C000002F5F3F4F02C05F
:101D7E0020E030E02A303105D4F28BB18F758BB96B
:101D8E0008958BB180618BB92FEF40E782E021502F
:101D9E0040408040E1F700C000008BB18F7E8BB9D0
:101DAE0008958BB180628BB99FEF20E742E091508E
:101DBE0020404040E1F700C000008BB18F7D8BB911
:101DCE0008958BB180648BB98FEF90E722E081503C
:101DDE0090402040E1F700C000008BB18F7B8BB9A3
:101DEE0008958BB180688BB94FEF80E792E0415038
:101DFE0080409040E1F700C000008BB18F778BB927
:021E0E00089535
:101E10000E94C51887E690E00E944D182FEF83EDD1
:101E200090E3215080409040E1F700C000006CE951
:101E300070E080E00E94D31766EE70E080E00E94C0
:101E4000D31769EE70E080E00E94D31766EE70E071
:101E500080E00E94D3176CE970E080E00E94D31705
:101E600066EE70E080E00E94D3176FE271E080E0E0
:101E70000E94D3176CE571E080E00E94D31763E7FE
:101E800071E080E00E94D31768E871E080E00E9472
:101E9000D3176AE971E080E00E94D3176DEA71E020
:101EA00080E00E94D3176FEB71E080E00E94D317AF
:101EB0000E948518C82F813361F469ED71E080E0DC
:101EC0000E94D3170E947C1760EF71E080E00E94AF
:101ED000D317C23361F468E072E080E00E94D31748
:101EE0000E9424136DE172E080E00E94D317C33397
:101EF00061F463E372E080E00E94D3170E94CD1684
:101F000065E472E080E00E94D317C43361F468E5B1
:101F100072E080E00E94D3170E948E0C6BE672E0A4
:101F200080E00E94D317C53361F46FE772E080E070
:101F30000E94D3170E94A51361E972E080E00E941D
:101F4000D317C63309F06ACF6CE970E080E00E94D5
:101F5000D31764EA72E080E00E94D31765ED72E067
:101F600080E00E94D31769EF72E080E00E94D317EF
:101F70006CE173E080E00E94D31764E473E080E0DA
:101F80000E94D3176EE673E080E00E94D3176DE8DD
:101F900073E080E00E94D3170E943F1681E090E03A
:101FA0000E9422186BE973E080E00E94D3172FEFA4
:101FB0008DE399E4215080409040E1F700C000009B
:101FC0000E948518C82F2FC0C73749F463EA73E011
:101FD00080E00E94D31781E090E00E94D70DC337C4
:101FE00049F466EA73E080E00E94D31780E090E055
:101FF0000E94D70DC43649F469EA73E080E00E947C
:10200000D31783E090E00E94D70DC13649F46CEA03
:1020100073E080E00E94D31782E090E00E94D70D29
:102020000E948518C82FC111CFCF80E090E00E9498
:1020300022182FEF8DE399E4215080409040E1F782
:0620400000C00000EBCE21
:10204600CF92DF92EF92FF92CF93DF9300D000D032
:10205600CDB7DEB76B017C01DC01CB01BF778B3DD1
:102066002FE0920729E4A2072FE3B20728F500978D
:1020760020E8A20729E3B207E0F40097A048B105DB
:1020860048F420E030E040E853E0C701B6010E9482
:10209600C91808C020E030E040E85BE7C701B60198
:1020A6000E948D1869837A838B839C83C701B6014E
:1020B600A1C0C701B60198C0B701A601442777FDA4
:1020C6004395552766277727823D23E592072BE719
:1020D600A20720E4B20768F5843E9B4CA641B044B3
:1020E600A0F4452B49F02BED3FE049EC5FE3C70137
:1020F600B6010E948D187BC02BED3FE049EC5FE3F3
:10210600C701B6010E948C186BC0452B49F02BED18
:102116003FE049E450E4C701B6010E948D1863C050
:102126002BED3FE049E450E4C701B6010E948C184C
:102136005AC0863D21E3920722EEA20720E4B207A9
:1021460068F5803E9D4EAF4AB044A0F4452B49F059
:1021560024EE3BEC46E950E4C701B6010E948D1817
:102166003FC024EE3BEC46E950E4C701B6010E94AD
:102176008C183DC0452B49F02BED3FE049EC50E46F
:10218600C701B6010E948D182FC02BED3FE049EC28
:1021960050E4C701B6010E948C1826C00097A048DB
:1021A600BF4738F0A7019601C701B6010E948C18F7
:1021B60021C0AE014F5F5F4FC701B6010E940811F3
:1021C6009C012370332769817A818B819C81213020
:1021D600310531F02230310531F0232B41F404C0B2
:1021E6000E949E1407C090580E94251403C00E94A6
:1021F6009E1490580F900F900F900F90DF91CF91F3
:0A220600FF90EF90DF90CF90089555
:102210004F925F926F927F92AF92BF92CF92DF9276
:10222000EF92FF920F931F93CF93DF93CDB7DEB75B
:102230002C970FB6F894DEBF0FBECDBF2B013C012B
:102240005A01DC01CB01BF778B3D2FE0920729ECCF
:10225000A2072DE4B20708F042C023E839EF42E2BA
:102260005FE3C301B2010E94C91820E030E040E4FE
:102270005BE40E948D1820E030E040E45BE40E94C3
:102280008C186B017C010E94931869877A878B8771
:102290009C872AED3FE049EC5FE3C701B6010E944D
:1022A000C9189B01AC01C301B2010E948C182B011B
:1022B0003C0123EA35E848E852E3C701B6010E9431
:1022C000C9189B01AC01C301B2010E948C18F50131
:1022D000608371838283938389859A8552C0009736
:1022E000F0E8AF07FFE7BF0770F0A3019201C30159
:1022F000B2010E948C18F5016083718382839383FD
:1023000080E090E03EC0AC01BD0127E17695679585
:10231000579547952A95D1F7465951096109710991
:102320006A017B0137E1CC0CDD1CEE1CFF1C3A95E9
:10233000D1F78C199D09AE09BF098D839E83AF83A8
:10234000B88700E010E021E030E0BE016F5F7F4F12
:10235000CE0105960E94700249815A816B817C8171
:1023600077FE0AC07058F5014083518362837383FE
:1023700091958195910905C0F50140835183628350
:1023800073832C960FB6F894DEBF0FBECDBFDF91DE
:10239000CF911F910F91FF90EF90DF90CF90BF9062
:0C23A000AF907F906F905F904F90089579
:1023AC00A4E0B0E0ECEDF1E10C94A6178B019C01DC
:1023BC003F770B3D4FE0140749E424074FE3340704
:1023CC00B8F40115110540E8240749E3340708F077
:1023DC008DC020E030E040E85BE70E948D186983F7
:1023EC007A838B839C8360E070E080E89FE389C0F4
:1023FC006B017C01CC24F7FCC394DD24EE24FF2478
:10240C00023D43E514074BE7240740E4340730F55D
:10241C00043E4BEC140746E1240740E4340768F013
:10242C002BED3FE049E450E4C114D10419F00E94B3
:10243C008D1861C00E948C185EC0C114D10439F093
:10244C002BED3FE049EC5FE30E948D1858C09B01D7
:10245C00AC016BED7FE089EC9FE325C0063D41E3C9
:10246C00140742EE240740E4340700F5003E4DEE1D
:10247C0014074FEA240740E4340768F02BED3FE0E3
:10248C0049EC50E4C114D10419F00E948D182EC0EF
:10249C000E948C182BC0C114D10409F0905824EE62
:1024AC003BEC46E950E40E948C1829C0011511053B
:1024BC0040E824074FE7340728F09B01AC010E9449
:1024CC008C181FC0AE014F5F5F4F0E9408119C011A
:1024DC002370332769817A818B819C81213031056E
:1024EC0041F02230310539F0232B49F40E949E141F
:1024FC0008C0905804C00E949E14905802C00E94BC
:0A250C0025142496E8E00C94C21791
:102516004F925F926F927F928F929F92AF92BF92ED
:10252600CF92DF92EF92FF92CF93DF93CDB7DEB7D4
:1025360028970FB6F894DEBF0FBECDBF6B017C01A6
:10254600DC01CB0147E1B695A795979587954A9506
:10255600D1F799278F579109873191059CF597FDFA
:1025660036C088248A94982C3FE7A32EB12C04C049
:10257600B594A794979487948A95D2F7D501C40108
:102586008C219D21AE21BF21892B8A2B8B2BD1F04B
:1025960020E030E040E85BE7C701B6010E948D18F5
:1025A6006D837E838F839887F7FE04C0C80CD91C81
:1025B600EA1CFB1C80949094A094B094C820D92067
:1025C600EA20FB205C2D4D2D3E2D2F2D21C020E035
:1025D60030E040E85BE7C701B6010E948D186983C9
:1025E6007A838B839C83F7FE0FC0D701C601880FC1
:1025F600991FAA1FBB1F892B8A2B8B2B19F350E01F
:1026060040E030E82FEB04C050E040E030E020E04E
:10261600652F742F832F922F28960FB6F894DEBF5E
:102626000FBECDBFDF91CF91FF90EF90DF90CF909F
:10263600BF90AF909F908F907F906F905F904F90DC
:022646000895F5
:10264800CF92DF92EF92FF92CF93DF930E943F16D3
:1026580081E090E00E9422182FEF8DE399E4215049
:1026680080409040E1F700C00000C12CD12C7601D9
:1026780052C0C701B6010E94D61120E030E040EAFE
:1026880051E40E94C9180E949318EB01C701B601D2
:102698000E94231020E030E040EA51E40E94C9186B
:1026A8000E949318DD235CF077234CF08DE090E0D6
:1026B8000E94D70D8BE090E00E94D70D22C0DD2349
:1026C8005CF477234CF08CE090E00E94D70D8BE00F
:1026D80090E00E94D70D15C0DD235CF077234CF401
:1026E8008DE090E00E94D70D8AE090E00E94D70D1F
:1026F80008C08CE090E00E94D70D8AE090E00E942C
:10270800D70D2AE037ED43E25CE3C701B6010E942A
:102718008D186B017C012BED3FE049EC50E4C701BB
:10272800B6010E94BB1888230CF4A3CF80E090E088
:102738000E942218DF91CF91FF90EF90DF90CF9009
:022748000895F2
:10274A000E943F1681E090E00E9422182FEF8DE34D
:10275A0099E4215080409040E1F700C0000081E0F8
:10276A0090E00E94D70D82E090E00E94D70D87E0AA
:10277A0090E00E94D70D86E090E00E94D70D83E09A
:10278A0090E00E94D70D81E090E00E94D70D85E08D
:10279A0090E00E94D70D87E090E00E94D70D80E07C
:1027AA0090E00E94D70D83E090E00E94D70D84E06C
:1027BA0090E00E94D70D85E090E00E94D70D82E05C
:1027CA0090E00E94D70D80E090E00E94D70D86E04D
:1027DA0090E00E94D70D84E090E00E94D70D82E03D
:1027EA0090E00E94D70D85E090E00E94D70D83E02B
:1027FA0090E00E94D70D83E090E00E94D70D87E019
:10280A0090E00E94D70D82E090E00E94D70D84E00C
:10281A0090E00E94D70D86E090E00E94D70D87E0F5
:10282A0090E00E94D70D80E090E00E94D70D80E0F2
:10283A0090E00E94D70D80E090E00E94221808954F
:10284A004F925F926F927F928F929F92AF92BF92B6
:10285A00CF92DF92EF92FF92CF93DF9300D000D016
:10286A00CDB7DEB74B015C019B01AC010E94C918D0
:10287A006B017C019B01AC01C501B4010E94C9181E
:10288A0069837A838B839C832CE33CE646E356E395
:10289A00C701B6010E94C9182FEC37E040E559E399
:1028AA000E948C182B013C01A7019601C701B601B1
:1028BA000E94C91829813A814B815C810E94C918FA
:1028CA009B01AC01C301B2010E94C9182B013C0152
:1028DA0024E838E848E05CE3C701B6010E94C91859
:1028EA002BEA3AEA4AE25EE30E948C1829813A818D
:1028FA004B815C810E94C918A50194010E948D1820
:10290A009B01AC01C301B2010E948D180F900F9078
:10291A000F900F90DF91CF91FF90EF90DF90CF90C3
:10292A00BF90AF909F908F907F906F905F904F90E5
:02293A000895FE
:10293C004F925F926F927F928F929F92AF92BF92C3
:10294C00CF92DF92EF92FF92CF93DF9300D000D023
:10295C00CDB7DEB79B01AC010E94C9186B017C019D
:10296C009B01AC010E94C9182B013C0120E030E016
:10297C0040E05FEBC701B6010E94C91820E030E0CF
:10298C0040E85FE30E948D184B015C012FE93AEAA5
:10299C004AE25DE3C301B2010E94C9189B01AC017C
:1029AC00C501B4010E948D184B015C0127E13AE985
:1029BC004CEC57E3C701B6010E94C9182FE334E071
:1029CC0046EB5AE30E948C1869837A838B839C8331
:1029DC00A3019201C701B6010E94C9189B01AC0169
:1029EC0069817A818B819C810E94C9189B01AC0101
:1029FC00C501B4010E948D180F900F900F900F908D
:102A0C00DF91CF91FF90EF90DF90CF90BF90AF9080
:0E2A1C009F908F907F906F905F904F900895E5
:102A2A000FC00E949A1838F00E94A11820F095232E
:102A3A0011F00C94AF180C94CD1811240C94A91809
:102A4A000E945A1770F3959FC1F3950F50E0551FD6
:102A5A00629FF001729FBB27F00DB11D639FAA27E9
:102A6A00F00DB11DAA1F649F6627B00DA11D661F38
:102A7A00829F2227B00DA11D621F739FB00DA11D59
:102A8A00621F839FA00D611D221F749F3327A00D13
:102A9A00611D231F849F600D211D822F762F6A2FAF
:102AAA0011249F5750409AF0F1F088234AF0EE0F14
:102ABA00FF1FBB1F661F771F881F91505040A9F741
:102ACA009E3F510580F00C94AF180C94A9185F3FF3
:102ADA00E4F3983ED4F3869577956795B795F7957D
:102AEA00E7959F5FC1F7FE2B880F911D96958795F5
:042AFA0097F90895AB
:102AFE0011C00E949A1838F00E94A11820F039F4E3
:102B0E009F3F19F426F40C94CD180EF4E095E7FBD4
:102B1E000C94AF18E92F0E945A1758F3BA17620790
:102B2E0073078407950720F079F4A6F50C94A8187E
:102B3E000EF4E0950B2EBA2FA02D0B01B9019001CA
:102B4E000C01CA01A0011124FF27591B99F0593F0E
:102B5E0050F4503E68F11A16F040A22F232F342F56
:102B6E004427585FF3CF469537952795A795F040A4
:102B7E005395C9F77EF41F16BA0B620B730B840BB9
:102B8E00BAF09150A1F0FF0FBB1F661F771F881F71
:102B9E00C2F70EC0BA0F621F731F841F48F48795C9
:102BAE0077956795B795F7959E3F08F0B0CF9395BB
:0E2BBE00880F08F09927EE0F979587950895D8
:102BCC000F931F93CF93DF93EA0140385105D4F054
:102BDC0020E030E040E05FE70E94C9189E012F57CB
:102BEC003109203831056CF120E030E040E05FE73E
:102BFC000E94C918CE5FD109C038D1051CF1CFE7AE
:102C0C00D0E020C042385F4FECF420E030E040E8E8
:102C1C005CE00E94C9189E012A593F4F22384FEFA1
:102C2C0034077CF420E030E040E85CE00E94C918F6
:102C3C00C453DF4FC2382FEFD20724F4C2E8DFEFC2
:102C4C0001C0E9019E0121583F4F8901330F220B2E
:102C5C00330BA9019801E7E1220F331F441F551FC5
:102C6C00EA95D1F70E94C918DF91CF911F910F916E
:022C7C000895B9
:102C7E0082E090E00E94D70D82E090E00E94D70D96
:102C8E0082E090E00E94D70D82E090E00E94D70D86
:102C9E0082E090E00E94D70D82E090E00E94D70D76
:102CAE0082E090E00E94D70D82E090E00E94D70D66
:102CBE0082E090E00E94D70D82E090E00E94D70D56
:102CCE0080E090E00E94D70D80E090E00E94D70D4A
:102CDE0080E090E00E94D70D80E090E00E94D70D3A
:102CEE0080E090E00E94D70D80E090E00E94D70D2A
:102CFE0080E090E00E94D70D80E090E00E94D70D1A
:102D0E0080E090E00E94D70D80E090E00E94D70D09
:022D1E00089516
:102D2000E89409C097FB3EF4909580957095619565
:102D30007F4F8F4F9F4F9923A9F0F92F96E9BB271B
:102D40009395F695879577956795B795F111F8CF97
:102D5000FAF4BB0F11F460FF1BC06F5F7F4F8F4F02
:102D60009F4F16C0882311F096E911C0772321F0F8
:102D70009EE8872F762F05C0662371F096E8862F90
:102D800070E060E02AF09A95660F771F881FDAF7E7
:0A2D9000880F9695879597F908952E
:102D9A000E943F1681E090E00E9422182FEF8DE3F7
:102DAA0099E4215080409040E1F700C0000087E09C
:102DBA0090E00E94D70D80E090E00E9422182FEF49
:102DCA008DE399E4215080409040E1F700C0000073
:102DDA0082E090E00E94D70D81E090E00E942218E4
:102DEA002FEF8DE399E4215080409040E1F700C035
:102DFA00000085E090E00E94D70D80E090E00E94FC
:042E0A0022180895ED
:102E0E000E94621788F09F5798F0B92F9927B751F3
:102E1E00B0F0E1F0660F771F881F991F1AF0BA9570
:102E2E00C9F714C0B13091F00E94A818B1E008950E
:102E3E000C94A818672F782F8827B85F39F0B93F00
:102E4E00CCF3869577956795B395D9F73EF4909523
:0E2E5E008095709561957F4F8F4F9F4F08951F
:102E6C00990F0008550FAA0BE0E8FEEF161617068F
:102E7C00E807F907C0F012161306E407F50798F0F7
:102E8C00621B730B840B950B39F40A2661F0232B10
:102E9C00242B252B21F408950A2609F4A140A6958C
:082EAC008FEF811D811D0895C7
:102EB40057FD9058440F551F59F05F3F71F04795E7
:102EC400880F97FB991F61F09F3F79F087950895CC
:102ED400121613061406551FF2CF4695F1DF08C0EB
:102EE400161617061806991FF1CF86957105610508
:042EF40008940895A1
:102EF8000E943F1681E090E00E9422182FEF8DE398
:102F080099E4215080409040E1F700C0000087E03C
:102F180090E00E94D70D85E090E00E94D70D82E0F6
:102F280090E00E94D70D80E090E00E94221808955A
:102F38002F923F924F925F926F927F928F929F92C1
:102F4800AF92BF92CF92DF92EF92FF920F931F93AF
:102F5800CF93DF93CDB7DEB7CA1BDB0B0FB6F89460
:082F6800DEBF0FBECDBF0994CE
:102F70002A88398848885F846E847D848C849B8409
:102F8000AA84B984C884DF80EE80FD800C811B8117
:102F9000AA81B981CE0FD11D0FB6F894DEBF0FBE46
:062FA000CDBFED01089514
:102FA600CF92DF92EF926B01E82E06C09FEFC91A0F
:102FB600D90AE90A0E947E18F6018491E7FC80810D
:0C2FC6008111F4CFEF90DF90CF900895C0
:102FD20097FB072E16F4009407D077FD09D00E94C4
:102FE200FD1707FC05D03EF4909581959F4F0895FB
:082FF200709561957F4F089571
:102FFA00AA1BBB1B51E107C0AA1FBB1FA617B70715
:10300A0010F0A61BB70B881F991F5A95A9F7809530
:08301A009095BC01CD01089561
:10302200092E0394000C11F4882352F0BB0F40F4D4
:10303200BF2B11F460FF04C06F5F7F4F8F4F9F4F14
:023042000895EF
:10304400892B39F08BB184608BB98BB1877F8BB9B5
:1030540008958BB18B7F8BB98BB188608BB9089540
:10306400A29FB001B39FC001A39F700D811D1124C5
:0E307400911DB29F700D811D1124911D0895B4
:1030820057FD05C06591759185919591089561915E
:08309200719181919191089563
:10309A009093C5008093C40088E18093C10086E0C4
:0630AA008093C2000895AE
:1030B0000E943218A59F900DB49F900DA49F800D83
:0630C000911D112408958A
:1030C600EC010E94D5180E94D418CE010E94D61891
:0630D600CE010E94D21899
:1030DC00B7FF0C9458180E945818821B930B089534
:1030EC0057FD03C065917591089561917191089593
:0E30FC009091C00095FFFCCF8093C600089510
:0E310A008091C0008823E4F78091C6000895EC
:0E3118005058BB27AA270E947F150C9411184F
:0E3126000E9407176894B1110C94A91808951F
:0E31340000240A9416161706180609060895B8
:0E31420000240A9412161306140605060895BA
:0E315000E894BB2766277727CB0197F90895EF
:0C315E0097F99F6780E870E060E008953A
:0C316A00EE0FFF1F0590F491E02D09947A
:0A3176000E94361708F481E0089566
:0A3180000E94361708F48FEF08953F
:08318A008AB18C6F8AB9089527
:083192000E9415150C941118A0
:06319A009FEF80EC089598
:0431A0000C9400008B
:0431A4000E944C0039
:0231A800089588
:0231AA00089586
:0231AC00089584
:00000001FF
