:100000000C943D000C9403060C9403060C94030618
:100010000C9403060C9403060C9403060C9403063C
:100020000C9403060C9403060C9403060C9403062C
:100030000C9403060C9403060C9403060C9403061C
:100040000C9403060C9403060C9403060C9403060C
:100050000C9403060C9403060C9403060C940306FC
:100060000C9403060C940306010001128001120196
:1000700032000C1401320136800011241FBECFEF74
:10008000D8E0DEBFCDBFE8E6F0E040E017C0B591B4
:10009000A59135912591059107FD0CC0959185910C
:1000A000EF01F92FE82F05900D92A217B307D9F7AA
:1000B000FE0104C01D92A217B307E1F7E937F40768
:0E00C00031F70E94C0000C94D905F894FFCFD0
:1000CE00496E67726573652041004269656E76659B
:1000DE006E69646F0043657272616475726100418E
:1000EE00627269656E646F2E2E2E0043616D6269B9
:1000FE0061646100436F6E7472617365F161004CEF
:10010E006F6E6769747564004572726F723A003172
:10011E003233340023203A2043616D6269617220CC
:10012E0050415353002A203A2041627269720020D6
:10013E002020202000496E67726573652050415360
:10014E005300436F72726563746100496E636F7220
:10015E00726563746100002000496E677265736595
:10016E00206E75657661004E75657661205041533F
:02017E0053002C
:10018000CF93DF930F92CDB7DEB70E94F6050E94A2
:1001900090030E94EE0319820E94E40500E010E043
:1001A00081E00E94E804809134019091350100972C
:1001B00099F40E94E405BE016F5F7F4F84E391E0F4
:1001C0000E94BB022FEF89E698E1215080409040C9
:1001D000E1F700C00000E4CF81309105C9F422E2CC
:1001E00031E040E063E371E080E00E943B04BE0147
:1001F0006F5F7F4F84E391E00E94BB022FEF89E69F
:1002000098E1215080409040E1F700C00000C8CF45
:100210008230910509F0ACC00115110589F42DE378
:1002200031E040E063E471E080E00E943B042FEFA6
:1002300089E698E1215080409040E1F700C000003D
:10024000BE016F5F7F4F84E391E00E94BB02898112
:100250008823F9F004301105E4F4F801EA5FFE4F59
:100260009AE29083F801E050FF4F808326E031E06E
:1002700040E863E471E080E00E943B042FEF89E6F0
:1002800098E1215080409040E1F700C000000F5FEE
:100290001F4F0430110509F083CF80E091E00E94E8
:1002A000B704892B01F185B1806285B985B18F7E54
:1002B00085B920E531E040E062E071E080E00E9435
:1002C0003B040E946E0510923501109234012FEF0D
:1002D0008BE792E9215080409040E1F700C0000098
:1002E00080E090E03CC029E531E040E062E071E070
:1002F00080E00E943B04809132019091330101968D
:10030000909333018093320103976CF085B1806143
:1003100085B90E94AE0585B18F7E85B910923301F3
:10032000109232010FC085B1806185B92FEF8BE744
:1003300092E9215080409040E1F700C0000085B173
:100340008F7E85B91092350110923401C9CFFC011E
:10035000EA5FFE4F24E631E040E0208301968430DE
:100360009105ACF381E00E94E80400E010E018CFB2
:100370008330910509F0A7C00115110589F425E620
:1003800031E040E063E471E080E00E943B042FEF45
:1003900089E698E1215080409040E1F700C00000DC
:1003A000BE016F5F7F4F84E391E00E94BB028981B1
:1003B0008823F9F004301105E4F4F801EA5FFE4FF8
:1003C0009AE29083F801E050FF4F808326E031E00D
:1003D00040E863E471E080E00E943B042FEF89E68F
:1003E00098E1215080409040E1F700C000000F5F8D
:1003F0001F4F0430110509F0D3CEF801EA5FFE4F1C
:10040000108280E091E00E94B704892BD1F022E0B5
:1004100031E040E067E671E080E00E943B042FEFAE
:1004200089E698E1215080409040E1F700C000004B
:1004300084E090E0909335018093340180E090E077
:100440003CC029E531E040E062E071E080E00E94DC
:100450003B048091320190913301019690933301D6
:100460008093320103976CF085B1806185B90E9459
:10047000AE0585B18F7E85B910923301109232019D
:100480000FC085B1806185B92FEF8BE792E92150CC
:1004900080409040E1F700C0000085B18F7E85B9B3
:1004A0001092350110923401C9CFFC01EA5FFE4F72
:1004B00024E631E040E02083019684309105ACF3DE
:1004C00000E010E06DCE049709F06ACE0115110529
:1004D00089F422E031E040E067E671E080E00E94CC
:1004E0003B042FEF89E698E1215080409040E1F7EE
:1004F00000C00000BE016F5F7F4F84E391E00E9467
:10050000BB0289818823D1F004301105BCF4F801C5
:10051000E65FFE4F80832AE031E040E865E771E066
:1005200080E00E943B042FEF89E698E12150804053
:100530009040E1F700C000000F5F1F4F043011052D
:1005400009F02ECE8AE091E00E94820410923501DB
:100550001092340180E090E008C0FC01E65FFE4F9D
:1005600024E631E040E02083019684309105ACF32D
:0605700000E010E015CED2
:10057600CF92DF92EF92FF920F931F93CF93DF9369
:10058600CDB7DEB7A0970FB6F894DEBF0FBECDBFCE
:1005960028E0E2E1F1E0DE01119601900D922A9544
:1005A600E1F728E0EAE1F1E0DE01199601900D920B
:1005B6002A95E1F720E1E2E2F1E0DE0151960190B1
:1005C6000D922A95E1F72BB12E612BB9A0E0B0E090
:1005D600EE24EA94FE2C0FEF1FEF52C04BB1FD0143
:1005E600EE0FFF1FCC24C394D12CCC0EDD1EEC0DD8
:1005F600FD1D21E030E0008002C0220F331F0A9467
:10060600E2F7209524232BB92AE12A95F1F700C0B9
:1006160040E050E016C026B1FA01EE0FFF1FCC24D1
:10062600C394D12CCC0EDD1EEC0DFD1D30E00084F4
:1006360002C0359527950A94E2F720FF06C04F5F62
:100646005F4F443051053CF302C07D018A014BB136
:10065600FD01EE0FFF1F21E030E02C0F3D1FE20FE2
:10066600F31F21E030E0008002C0220F331F0A94FE
:10067600E2F7242B2BB90F3F3FEF130729F411960E
:10068600A430B1050CF4AACF0F3FEFEF1E07A1F17E
:10069600EE0CFF1CEE0CFF1CCC24C394D12CCC0E0C
:1006A600DD1EEC0CFD1CF701E00FF11F2089FB019C
:1006B6002083FC0140815181452B31F4213421F402
:1006C60021E030E031832083FC012081318121301B
:1006D6003105A1F4FB0120812A3231F422E030E019
:1006E600FC01318320830AC0233241F423E030E049
:1006F600FC013183208302C0FB011082A0960FB655
:10070600F894DEBF0FBECDBFDF91CF911F910F9141
:0A071600FF90EF90DF90CF90089560
:100720002FEF80E792E0215080409040E1F700C039
:10073000000083E30E94E8042FEF80E792E021505D
:1007400080409040E1F700C0000082E30E94E8048E
:100750002FEF80E792E0215080409040E1F700C009
:10076000000088E20E94E8042FEF80E792E0215029
:1007700080409040E1F700C000008CE00E94E80457
:100780002FEF80E792E0215080409040E1F700C0D9
:10079000000086E00E94E8042FEF80E792E02150FD
:1007A00080409040E1F700C0000081E00E94E80432
:1007B0002FEF80E792E0215080409040E1F700C0A9
:1007C000000080E80E94E8042FEF80E792E02150CB
:0C07D00080409040E1F700C00000089558
:1007DC00AF92BF92CF92DF92EF920F931F93CF9372
:1007EC00DF93CDB7DEB72A970FB6F894DEBF0FBEF6
:1007FC00CDBF2DE131E040E085E0F9018E010F5FC6
:10080C001F4FD801742F0E94CC054EE051E060E8D8
:10081C005E0186E0A80EB11C24E030E0C5010E9408
:10082C009C051A86680180E8E82EB50180E84E2DFB
:10083C0096010E943205892B41F024E030E04EE015
:10084C0051E08E2DB6010E9453052A960FB6F894EE
:10085C00DEBF0FBECDBFDF91CF911F910F91EF90F7
:0A086C00DF90CF90BF90AF90089589
:100876006F927F928F92CF92DF92EF92CF93DF9318
:100886003B01882E6901E42E81E00E94E804C0E065
:10089600D0E003C00E940D052196C031D1056CF44D
:1008A600A82DC3018C0F9D1FA11DD7FDAA95FC0184
:1008B6008491A7FD80818111EDCF80EC0E94E80430
:1008C600C0E0D0E003C00E940D052196C031D105DD
:1008D6006CF4AE2DC6018C0F9D1FA11DD7FDAA95E8
:1008E600FC018491A7FD80818111EDCFDF91CF912D
:0E08F600EF90DF90CF908F907F906F900895DD
:10090400CF93DF93EC01BC0180E80E94860584301C
:100914009105B8F00797A8F4CE010E94ED0529EFE0
:1009240030E040E062E071E080E00E943B042FEFA1
:1009340083ED90E3215080409040E1F700C0000037
:1009440011C02DE031E040E066E171E080E00E94FA
:100954003B042FEF83ED90E3215080409040E1F77A
:0A09640000C00000DF91CF9108955C
:10096E00EF92FF920F931F93CF93DF9300D000D09F
:10097E000F92CDB7DEB77C014EE051E060E824E087
:10098E0030E08E010F5F1F4FC8010E949C051D8233
:10099E00980140E8B70180E80E943205892B19F4CE
:1009AE0081E090E002C080E090E00F900F900F90F9
:1009BE000F900F90DF91CF911F910F91FF90EF90BD
:0209CE0008958A
:1009D000982F92959F7095B99BB19F7D9BB99BB1C4
:1009E0009F7B9BB99BB190689BB9EFE9FFE0319782
:1009F000F1F700C000009BB19F779BB98F7085B95C
:100A00008BB180688BB98FE99FE00197F1F700C047
:0A0A100000008BB18F778BB90895B9
:100A1A00982F92959F7095B99BB190629BB99BB1A3
:100A2A009F7B9BB99BB190689BB9EFE9FFE0319737
:100A3A00F1F700C000009BB19F779BB98F7085B911
:100A4A008BB180688BB98FE99FE00197F1F700C0FD
:0A0A5A0000008BB18F778BB908956F
:100A6400CF92DF92EF926B01E82EF6018491E7FCBE
:100A74008081F901549147FD508185130BC088236F
:100A840041F08FEFC81AD80AE80A2F5F3F4F4F4F43
:100A9400ECCF582F90E0851B9109EF90DF90CF9019
:020AA4000895B3
:100AA600CF92DF92EF926B01E82ECA01422F732F8D
:100AB6000BC0F6015E2D0E94FE05262F0E94BF0583
:100AC6003FEFC31AD30AE30A4150704090F7EF9004
:060AD600DF90CF900895AF
:100ADC0023EE30E040E06DEE70E080E00E943B04DD
:100AEC0085B1806285B92FEF8BE792E92150804068
:100AFC009040E1F700C0000085B18F7D85B9089565
:100B0C00CF92DF92EF926B01E82EA82FCB01FC0164
:100B1C002491A7FD2081222319F00196A11DF7CF66
:0C0B2C008C199D09EF90DF90CF90089588
:100B3800BA01A901DC01CB01FC01F999FECF06C07D
:100B4800F2BDE1BDF89A319600B40D924150504083
:040B5800B8F708954D
:100B5C0088B1806188B92FEF83E294EF21508040F7
:100B6C009040E1F700C0000088B18F7E88B90895ED
:100B7C00262FF999FECF1FBA92BD81BD20BD0FB6AD
:0C0B8C00F894FA9AF99A0FBE01960895A9
:100B9800992777FD05C005900D920197E1F7089513
:0A0BA80001900D920197E1F7089506
:100BB200EC010E9408060E940706CE010E94090667
:060BC200CE010E940506B1
:100BC8002EEC30E040E068ED70E080E00E943B04ED
:020BD80008957E
:100BDA00BC0180E824E030E04EE051E00E94530579
:020BEA0008956C
:100BEC008FEF8AB984B980EF87B98FE088B90895FF
:0A0BFC0057FD608157FF64910895D2
:040C06000C9400004A
:040C0A000E946500DF
:020C0E00089547
:020C1000089545
:020C1200089543
:100C140004000300020001000000010002000300C0
:100C24003132334134353642373839432A3023445C
:00000001FF
