:100000000C943D000C9459050C9459050C94590519
:100010000C9459050C9459050C9459050C945905E8
:100020000C9459050C9459050C9459050C945905D8
:100030000C9459050C9459050C9459050C945905C8
:100040000C9459050C9459050C9459050C945905B8
:100050000C9459050C9459050C9459050C945905A8
:100060000C9459050C9459050100010C80010C01F8
:100070002C000AC0012C0130800011241FBECFEFDC
:10008000D8E0DEBFCDBFE8E6F0E040E017C0B591B4
:10009000A59135912591059107FD0CC0959185910C
:1000A000EF01F92FE82F05900D92A217B307D9F7AA
:1000B000FE0104C01D92A217B307E1F7E937F40768
:0E00C00031F70E94BC000C942F05F894FFCF7E
:1000CE00496E67726573652041004269656E76659B
:1000DE006E69646F0043657272616475726100418E
:1000EE00627269656E646F2E2E2E0043616D6269B9
:1000FE0061646100436F6E7472617365F161004CEF
:10010E006F6E6769747564004572726F723A002380
:10011E00203A2043616D6269617220504153530051
:10012E002A203A204162726972002000496E67727D
:10013E00657365205041535300436F72726563744B
:10014E006100496E636F72726563746100496E6718
:10015E00726573652061637475616C00496E6772B8
:0A016E00657365206E75657661000B
:10017800CF93DF93CDB7DEB761970FB6F894DEBFA4
:100188000FBECDBF0E944C050E94400319820E94F9
:100198003A0500E010E080912E0190912F01009720
:1001A80099F40E943A05BE016F5F7F4F8EE291E09D
:1001B8000E946E022FEF89E698E12150804090401E
:1001C800E1F700C00000E7CF81309105C9F42DE1C7
:1001D80031E040E06EE271E080E00E949E03BE01E3
:1001E8006F5F7F4F8EE291E00E946E022FEF89E6EB
:1001F80098E1215080409040E1F700C00000CBCF4B
:100208008230910509F094C00115110589F428E39D
:1002180031E040E06AE371E080E00E949E032FEF46
:1002280089E698E1215080409040E1F700C0000045
:10023800BE016F5F7F4F8EE291E00E946E0289815E
:100248008823D9F006301105C4F4F801E050FF4FB7
:10025800808320E031E040E8BE016E5F7F4F80E898
:100268000E949E032FEF89E698E12150804090403C
:10027800E1F700C000000F5F1F4F0430110521F0A7
:100288000630110509F087CFF801E050FF4F1082C2
:1002980080E091E00E941A04892BB9F085B1806250
:1002A80085B985B18F7E85B927E431E040E062E009
:1002B80071E080E00E949E030E94D10410922F01F9
:1002C80010922E0100E010E066CF85B1806185B9FB
:1002D80020E531E040E062E071E080E00E949E03AA
:1002E80080912C0190912D01019690932D0180937E
:1002F8002C012FEF83ED90E3215080409040E1F7EF
:1003080000C0000085B18F7E85B980912C01909145
:100318002D01039734F00E94110510922D011092BF
:100328002C0110922F0110922E0100E010E033CF23
:100338008330910509F07CC00115110589F422E08C
:1003480031E040E06BE571E080E00E949E032FEF12
:1003580089E698E1215080409040E1F700C0000014
:10036800BE016F5F7F4F8EE291E00E946E0289812D
:100378008823D9F006301105C4F4F801E050FF4F86
:10038800808320E031E040E8BE016E5F7F4F80E867
:100398000E949E032FEF89E698E12150804090400B
:1003A800E1F700C000000F5F1F4F0430110521F076
:1003B8000630110509F0EFCEF801E050FF4F10822A
:1003C80080E091E00E941A04892BD1F022E031E00C
:1003D80040E06AE671E080E00E949E032FEF89E624
:1003E80098E1215080409040E1F700C0000084E08F
:1003F80090E090932F0180932E0100E010E0CBCE87
:1004080020E531E040E062E071E080E00E949E0378
:100418002FEF83ED90E3215080409040E1F700C03A
:10042800000010922F0110922E0100E010E0B3CED0
:10043800049709F0B0CE0115110589F422E031E0E6
:1004480040E06AE671E080E00E949E032FEF89E6B3
:1004580098E1215080409040E1F700C00000BE01C3
:100468006F5F7F4F8EE291E00E946E028981882340
:10047800D9F006301105C4F4F801EA5FFE4F808315
:1004880026E031E040E8BE016E5F7F4F80E80E94C1
:100498009E032FEF89E698E1215080409040E1F7D4
:1004A80000C000000F5F1F4F0430110521F0063017
:1004B800110509F070CEF801EA5FFE4F108286E060
:1004C80091E00E94E50310922F0110922E0100E0A6
:0404D80010E061CE01
:1004DC00CF92DF92EF92FF920F931F93CF93DF9304
:1004EC00CDB7DEB7A0970FB6F894DEBF0FBECDBF69
:1004FC0028E0ECE0F1E0DE01119601900D922A95D6
:10050C00E1F728E0E4E1F1E0DE01199601900D92AB
:10051C002A95E1F720E1ECE1F1E0DE015196019042
:10052C000D922A95E1F72BB12E612BB9A0E0B0E02A
:10053C00EE24EA94FE2C0FEF1FEF52C04BB1FD01DD
:10054C00EE0FFF1FCC24C394D12CCC0EDD1EEC0D72
:10055C00FD1D21E030E0008002C0220F331F0A9401
:10056C00E2F7209524232BB92AE12A95F1F700C054
:10057C0040E050E016C026B1FA01EE0FFF1FCC246C
:10058C00C394D12CCC0EDD1EEC0DFD1D30E000848F
:10059C0002C0359527950A94E2F720FF06C04F5FFD
:1005AC005F4F443051053CF302C07D018A014BB1D1
:1005BC00FD01EE0FFF1F21E030E02C0F3D1FE20F7D
:1005CC00F31F21E030E0008002C0220F331F0A9499
:1005DC00E2F7242B2BB90F3F3FEF130729F41196A9
:1005EC00A430B1050CF4AACF0F3FEFEF1E0799F121
:1005FC00EE0CFF1CEE0CFF1CCC24C394D12CCC0EA7
:10060C00DD1EEC0CFD1CF701E00FF11F2089FB0136
:10061C002083FC0140815181452B31F4213421F49C
:10062C0021E030E031832083FC01208131812130B5
:10063C00310589F4FB012081233231F422E030E0D2
:10064C00FC013183208307C02A3229F423E030E0F7
:10065C00FC0131832083A0960FB6F894DEBF0FBE49
:10066C00CDBFDF91CF911F910F91FF90EF90DF9055
:04067C00CF9008957E
:100680002FEF80E792E0215080409040E1F700C0DA
:10069000000083E30E944B042FEF80E792E021509B
:1006A00080409040E1F700C0000082E30E944B04CC
:1006B0002FEF80E792E0215080409040E1F700C0AA
:1006C000000088E20E944B042FEF80E792E0215067
:1006D00080409040E1F700C000008CE00E944B0495
:1006E0002FEF80E792E0215080409040E1F700C07A
:1006F000000086E00E944B042FEF80E792E021503B
:1007000080409040E1F700C0000081E00E944B046F
:100710002FEF80E792E0215080409040E1F700C049
:10072000000080E80E944B042FEF80E792E0215008
:0C07300080409040E1F700C000000895F8
:10073C006F927F928F92CF92DF92EF92CF93DF9353
:10074C003B01882E6901E42E81E00E944B04C0E03D
:10075C00D0E003C00E9470042196C031D1056CF426
:10076C00A82DC3018C0F9D1FA11DD7FDAA95FC01BF
:10077C008491A7FD80818111EDCF80EC0E944B0408
:10078C00C0E0D0E003C00E9470042196C031D105B6
:10079C006CF4AE2DC6018C0F9D1FA11DD7FDAA9523
:1007AC00FC018491A7FD80818111EDCFDF91CF9168
:0E07BC00EF90DF90CF908F907F906F90089518
:1007CA00CF93DF93EC01BC0180E80E94E9048430F6
:1007DA009105B8F00797A8F4CE010E94430529EFC6
:1007EA0030E040E062E071E080E00E949E032FEF7B
:1007FA0083ED90E3215080409040E1F700C0000073
:10080A0011C02DE031E040E066E171E080E00E9435
:10081A009E032FEF83ED90E3215080409040E1F753
:0A082A0000C00000DF91CF91089597
:10083400EF92FF920F931F93CF93DF9300D000D0DA
:1008440000D0CDB7DEB77C0140E050E060E826E0A0
:1008540030E08E010F5F1F4FC8010E94FF04980112
:1008640040E8B70180E80E949504892B19F481E0DF
:1008740090E002C080E090E026960FB6F894DEBFC8
:100884000FBECDBFDF91CF911F910F91FF90EF90DD
:020894000895C5
:10089600982F92959F7095B99BB19F7D9BB99BB1FF
:1008A6009F7B9BB99BB190689BB9EFE9FFE03197BD
:1008B600F1F700C000009BB19F779BB98F7085B997
:1008C6008BB180688BB98FE99FE00197F1F700C083
:0A08D60000008BB18F778BB90895F5
:1008E000982F92959F7095B99BB190629BB99BB1DF
:1008F0009F7B9BB99BB190689BB9EFE9FFE0319773
:10090000F1F700C000009BB19F779BB98F7085B94C
:100910008BB180688BB98FE99FE00197F1F700C038
:0A09200000008BB18F778BB90895AA
:10092A00CF92DF92EF926B01E82EF6018491E7FCF9
:10093A008081F901549147FD508185130BC08823AA
:10094A0041F08FEFC81AD80AE80A2F5F3F4F4F4F7E
:10095A00ECCF582F90E0851B9109EF90DF90CF9054
:02096A000895EE
:10096C00CF92DF92EF926B01E82ECA01422F732FC8
:10097C000BC0F6015E2D0E945405262F0E94220505
:10098C003FEFC31AD30AE30A4150704090F7EF903F
:06099C00DF90CF900895EA
:1009A20023EE30E040E06DEE70E080E00E949E03B6
:1009B20085B1806285B92FEF8BE792E921508040A3
:1009C2009040E1F700C0000085B18F7D85B90895A0
:1009D200CF92DF92EF926B01E82EA82FCB01FC01A0
:1009E2002491A7FD2081222319F00196A11DF7CFA2
:0C09F2008C199D09EF90DF90CF900895C4
:1009FE00BA01A901DC01CB01FC01F999FECF06C0B9
:100A0E00F2BDE1BDF89A319600B40D9241505040BE
:040A1E00B8F7089588
:100A220085B1806185B92FEF83E294EF2150804038
:100A32009040E1F700C0000085B18F7E85B908952E
:100A4200262FF999FECF1FBA92BD81BD20BD0FB6E8
:0C0A5200F894FA9AF99A0FBE01960895E4
:100A5E00EC010E945E050E945D05CE010E945F05BD
:060A6E00CE010E945B05B1
:100A74002EEC30E040E068ED70E080E00E949E03E0
:020A84000895D3
:100A8600BC0180E826E030E040E050E00E94B60479
:020A96000895C1
:100A98008FEF8AB984B980EF87B98FE088B9089554
:0A0AA80057FD608157FF6491089527
:040AB2000C940000A0
:040AB6000E94650035
:020ABA0008959D
:020ABC0008959B
:020ABE00089599
:100AC0000400030002000100000001000200030016
:100AD0003132334134353642373839432A302344B2
:00000001FF
