:100000000C9434000C9451000C9451000C94510049
:100010000C9451000C9451000C9451000C9451001C
:100020000C9451000C9451000C9451000C9451000C
:100030000C9451000C9451000C9451000C945100FC
:100040000C9410010C9451000C9451000C9451002C
:100050000C9451000C9451000C9451000C945100DC
:100060000C9451000C94510011241FBECFEFD8E026
:10007000DEBFCDBF12E0A0E0B1E0E6E7F7E002C0EE
:1000800005900D92AE35B107D9F722E0AEE5B2E0AA
:1000900001C01D92A736B207E1F70E945A010C94E5
:1000A000B9030C940000FC019191992339F08091DF
:1000B000C00085FFFCCF9093C600F6CF0895CF9384
:1000C000DF93EB010097B9F410928B0010928A0035
:1000D00081E2809380008AE08093810090E080E05C
:1000E0008C179D07E9F0EFE9FFE03197F1F700C0C9
:1000F00000000196F5CF24E0880F991F2A95E1F7BB
:100100009C0150E040E060E074E284EF90E00E94E7
:1001100078032150310930938B0020938A00D8CF87
:1001200010928B0010928A00DF91CF9108957F92F8
:100130008F929F92AF92BF92CF92DF92EF92FF92F7
:100140000F931F93CF93DF936C01062F10E0000FE6
:10015000111FF12C20E7E22E30E8832E39EA932E8E
:1001600033E0A32EB12C40E9742ECF2DD0E0C01780
:10017000D1070CF047C02196CC0FDD1FCC0DDD1D43
:10018000888199811816190624F5789E9001799E28
:10019000300D1124032E000C440B550BC501B40186
:1001A0000E949A03CA01B9010E947F020E9447027D
:1001B0002297888199810E945F002FEF80E792E06B
:1001C000215080409040E1F700C00000F394F39488
:1001D000CCCFE89E9001E99E300D381B1124032EF0
:1001E000000C440B550BC501B4010E949A03CA01CF
:1001F000B9010E947F0220E030E040EC5FE30E9402
:10020000E302D4CFDF91CF911F910F91FF90EF9038
:10021000DF90CF90BF90AF909F908F907F90089588
:100220001F920F920FB60F9211242F933F938F932B
:100230009F93AF93BF938091630290916402A091CA
:100240006502B09166023091620223E0230F2D37E0
:1002500058F50196A11DB11D20936202809363029F
:1002600090936402A0936502B093660280915E024F
:1002700090915F02A0916002B09161020196A11D70
:10028000B11D80935E0290935F02A0936002B093D1
:100290006102BF91AF919F918F913F912F910F90EC
:1002A0000FBE0F901F90189526E8230F0296A11DF0
:1002B000B11DD2CF789484B5826084BD84B581604D
:1002C00084BD85B5826085BD85B5816085BD809121
:1002D0006E00816080936E00109281008091810099
:1002E0008260809381008091810081608093810091
:1002F000809180008160809380008091B100846053
:100300008093B1008091B00081608093B0008091B3
:100310007A00846080937A0080917A008260809372
:100320007A0080917A00816080937A0080917A00CF
:10033000806880937A001092C1001092C50087E611
:100340008093C40088E18093C10086E08093C2005E
:100350008AB11AB8209821988BB18C6F8BB9289AE2
:10036000299A229A84E691E00E945300C1E0D0E0ED
:1003700000E010E08091C00087FF11C08091C000B4
:1003800087FFFCCF8091C6008834C1F48DEA91E0EC
:100390000E94530069E080E391E00E9497002FEFF4
:1003A00060E772E0215060407040E1F700C000005B
:1003B00001151105F9F20E940000DCCF843541F4EB
:1003C00080ED91E00E9453006CE080E091E0E5CF89
:1003D000823409F057C08DEE91E00E94530090E006
:1003E00080E0F82E25E0281708F441C029B1AC01BF
:1003F0004E5F5F4FBE0102C0660F771F4A95E2F75E
:100400002623D1F5880F991FFC01EC5AFE4F64EFAB
:1004100071E0808191810E945F0081E292E00E9400
:10042000530081E38F0D9091C00095FFFCCF809326
:10043000C6008BE592E00E9453007FEF89E698E1C9
:10044000715080409040E1F700C000008091C000F2
:1004500087FFC5CF8091C00087FFFCCF8091C60089
:10046000883409F49CCF843509F0B9CF98CF23B1F3
:10047000AC0146505109BECF01968830910509F074
:10048000B0CFE4CF84E392E00E94530088CF0E9473
:100490004E026894B1110C94DD0208950E94C202CC
:1004A00088F09F5798F0B92F9927B751B0F0E1F035
:1004B000660F771F881F991F1AF0BA95C9F714C0E5
:1004C000B13091F00E94DC02B1E008950C94DC029E
:1004D000672F782F8827B85F39F0B93FCCF386951E
:1004E00077956795B395D9F73EF49095809570957B
:1004F00061957F4F8F4F9F4F0895E89409C097FBF8
:100500003EF490958095709561957F4F8F4F9F4FEA
:100510009923A9F0F92F96E9BB279395F69587952E
:1005200077956795B795F111F8CFFAF4BB0F11F4F1
:1005300060FF1BC06F5F7F4F8F4F9F4F16C0882398
:1005400011F096E911C0772321F09EE8872F762FCE
:1005500005C0662371F096E8862F70E060E02AF00F
:100560009A95660F771F881FDAF7880F96958795FB
:1005700097F9089557FD9058440F551F59F05F3F64
:1005800071F04795880F97FB991F61F09F3F79F0B5
:1005900087950895121613061406551FF2CF469537
:1005A000F1DF08C0161617061806991FF1CF8695B9
:1005B0007105610508940895E894BB27662777279D
:1005C000CB0197F908950E94F6020C9467030E94EC
:1005D000590338F00E94600320F0952311F00C9429
:1005E00050030C94560311240C94DD020E94BA02AD
:1005F00070F3959FC1F3950F50E0551F629FF00176
:10060000729FBB27F00DB11D639FAA27F00DB11D8E
:10061000AA1F649F6627B00DA11D661F829F222717
:10062000B00DA11D621F739FB00DA11D621F839F9E
:10063000A00D611D221F749F3327A00D611D231F74
:10064000849F600D211D822F762F6A2F11249F57C2
:1006500050409AF0F1F088234AF0EE0FFF1FBB1FC5
:10066000661F771F881F91505040A9F79E3F510584
:1006700080F00C9450030C94DD025F3FE4F3983E4D
:10068000D4F3869577956795B795F795E7959F5F2E
:10069000C1F7FE2B880F911D9695879597F90895C0
:1006A00097F99F6780E870E060E008959FEF80EC25
:1006B000089500240A9416161706180609060895C8
:1006C00000240A9412161306140605060895092E2E
:1006D0000394000C11F4882352F0BB0F40F4BF2B9D
:1006E00011F460FF04C06F5F7F4F8F4F9F4F0895DD
:1006F000A1E21A2EAA1BBB1BFD010DC0AA1FBB1F26
:10070000EE1FFF1FA217B307E407F50720F0A21B97
:10071000B30BE40BF50B661F771F881F991F1A9404
:1007200069F760957095809590959B01AC01BD012E
:10073000CF010895052E97FB1EF400940E94B1038B
:1007400057FD07D00E94780307FC03D04EF40C94A9
:10075000B10350954095309521953F4F4F4F5F4FD6
:10076000089590958095709561957F4F8F4F9F4F1D
:060770000895F894FFCF8C
:1007760093020400EE0108000B0208004B0204007D
:100786000B020800EE010800B8010400B8010800D9
:100796000B020800930204004B0208000B0208003B
:1007A60000000200260104008801FCFFD2010800B7
:1007B600B8010400880102004B0204000B02FEFF90
:1007C600B801FEFF060126014A015D018801B80154
:1007D600EE010B02456E766961722027482720706C
:1007E60061726120486172727920506F747465720B
:1007F6002C20275427207061726120546574726919
:10080600732C206F20274227207061726120757338
:10081600617220626F746F6E65730D0A00526570A7
:10082600726F64756369656E646F20486172727970
:1008360020506F74746572205468656D650D0A00EA
:10084600526570726F64756369656E646F20546576
:1008560074726973205468656D650D0A005573617D
:100866006E646F20626F746F6E6573207061726163
:1008760020726570726F6475636972206E6F746141
:100886007320696E646976696475616C65730D0AB7
:1008960000426F746F6E2070726573696F6E61646B
:1008A6006F3A20004F7063696F6E20696E76616CD7
:1008B6006964612E20456E76696172202748272C6F
:0E08C600202754272C206F202742270D0A00E0
:00000001FF
