:100000000C9434000C94B8000C94B8000C94B80014
:100010000C94B8000C94B8000C94B8000C94B80080
:100020000C94B8000C94B8000C94B8000C94B80070
:100030000C94B8000C94B8000C94B8000C94B80060
:100040000C94B8000C94B8000C94B8000C94B80050
:100050000C94B8000C94B8000C94B8000C94B80040
:100060000C94B8000C94B80011241FBECFEFD8E058
:10007000DEBFCDBF0E944D000C949B00F894FFCFD3
:100080000D0A00456E63656E6465724C757A0041B9
:0900900070616761724C757A0021
:10009A008AB180688AB90E94AD008FE39CE9019712
:1000AA00F1F700C0000087E690E00E9490000E94ED
:1000BA00B300C82F0E94A60060E870E080E00E94AA
:1000CA007A00C0FF09C063E870E080E00E947A000D
:1000DA008BB180688BB9EBCF8BB18F778BB96FE817
:0A00EA0070E080E00E947A00E2CF8F
:1000F400CF92DF92EF926B01E82E06C09FEFC91AF0
:10010400D90AE90A0E94A600F6018491E7FC8081DD
:0C0114008111F4CFEF90DF90CF900895A0
:100120009093C5008093C40088E18093C10086E06D
:060130008093C200089557
:10013600EC010E94BD000E94BC00CE010E94BE00E0
:06014600CE010E94BA0088
:0E014C009091C00095FFFCCF8093C6000895EF
:0C015A0084B1806184B980E48CBD0895FC
:0A0166000DB407FEFDCF8EB508951D
:040170000C940000EB
:040174000E943E00A7
:020178000895E8
:02017A000895E6
:02017C000895E4
:00000001FF
