:100000000C9434000C94B4000C94B4000C94B40020
:100010000C94B4000C94B4000C94B4000C94B40090
:100020000C94B4000C94B4000C94B4000C94B40080
:100030000C94B4000C94B4000C94B4000C94B40070
:100040000C94B4000C94B4000C94B4000C94B40060
:100050000C94B4000C94B4000C94B4000C94B40050
:100060000C94B4000C94B40011241FBECFEFD8E060
:10007000DEBFCDBF0E9446000C949700F894FFCFDE
:0C0080000D0A00456E74726F2069660066
:10008C008AB180688AB90E94A9008FE39CE9019724
:10009C00F1F700C0000087E690E00E948C000E94FF
:1000AC00AF00C82F0E94A20060E870E080E00E94C0
:1000BC007600C235A1F763E870E080E00E9476001C
:1000CC008BB180688BB99FEF23EC89E09150204075
:1000DC008040E1F700C000008BB18F778BB9DFCF88
:1000EC00CF92DF92EF926B01E82E06C09FEFC91AF8
:1000FC00D90AE90A0E94A200F6018491E7FC8081EA
:0C010C008111F4CFEF90DF90CF900895A8
:100118009093C5008093C40088E18093C10086E075
:060128008093C20008955F
:10012E00EC010E94B9000E94B800CE010E94BA00F4
:06013E00CE010E94B60094
:0E0144009091C00095FFFCCF8093C6000895F7
:0C01520084B1806184B980E48CBD089504
:0A015E000DB407FEFDCF8EB5089525
:040168000C940000F3
:04016C000E943E00AF
:020170000895F0
:020172000895EE
:020174000895EC
:00000001FF
