:100000000C9434000C94CA000C94CA000C94CA00DE
:100010000C94CA000C94CA000C94CA000C94CA0038
:100020000C94CA000C94CA000C94CA000C94CA0028
:100030000C94CA000C94CA000C94CA000C94CA0018
:100040000C94CA000C94CA000C94CA000C94CA0008
:100050000C94CA000C94CA000C94CA000C94CA00F8
:100060000C94CA000C94CA0011241FBECFEFD8E034
:10007000DEBFCDBF0E9454000C94AD00F894FFCFBA
:100080000D0A00456E63656E6465724C757A0041B9
:1000900070616761724C757A00496E64657465724F
:0700A0006D696E61646F00E1
:1000A8008AB180688AB90E94BF008FE39CE90197F2
:1000B800F1F700C0000087E690E00E94A2000E94CD
:1000C800C500C82F0E94B80060E870E080E00E9478
:1000D8008C00C13049F463E870E080E00E948C0035
:1000E8008BB180688BB9EBCFC11109C08BB18F7709
:1000F8008BB96FE870E080E00E948C00E0CF8BB194
:100108008F778BB969E970E080E00E948C00D7CFC7
:10011800CF92DF92EF926B01E82E06C09FEFC91ACB
:10012800D90AE90A0E94B800F6018491E7FC8081A7
:0C0138008111F4CFEF90DF90CF9008957C
:100144009093C5008093C40088E18093C10086E049
:060154008093C200089533
:10015A00EC010E94CF000E94CE00CE010E94D00086
:06016A00CE010E94CC0052
:0E0170009091C00095FFFCCF8093C6000895CB
:0C017E0084B1806184B980E48CBD0895D8
:0A018A000DB407FEFDCF8EB50895F9
:040194000C940000C7
:040198000E943E0083
:02019C000895C4
:02019E000895C2
:0201A0000895C0
:00000001FF
