:020000020000FC
:0200000004C03A
:0200040022C018
:1000080022C0789408E00EBF0FEF0DBF0FEF07B9BD
:1000180004B910E418B921E0D22F20E0C22F22271A
:100028000E9434005A9A5B9A03E00DBB0FE00093DC
:10003800690018B9289A0E94290028980E94290066
:10004800F8CF199118951A91189555E16BE47DEB45
:100058007A95F1F76A95E1F75A95D1F70000089576
:10006800C0E0D1E040E4488349E7499344E249933A
:1000780040E3499349E1499342E1499342E0499376
:1000880048E7499340E0499348E14993C0E0D1E00B
:020098000895C9
:00000001FF
