:020000020000FC
:0200000004C03A
:0200040028C012
:1000080029C0789408E00EBF0FEF0DBF0FEF04B9B9
:100018000FE007B921E0D22F20E0C22F21E0F22F14
:1000280021E2E22F22270E943C005A9A5B9A03E0C1
:100038000DBB0FE0009369001881208115B928B91C
:100048002C9A0E9431002C980E943100F5CF19910A
:10005800219118951A91229118955EE16BE47DEB38
:100068007A95F1F76A95E1F75A95D1F70000089566
:10007800C0E0D1E044E0499347E0499342E0499326
:1000880043E0499341E0499341E0499340E0499373
:1000980047E0499340E0499341E04993C0E0D1E00B
:1000A800E1E2F1E040E0419349E0419344E04193CB
:1000B80040E0419349E0419342E0419342E041935B
:1000C80048E0419340E0419348E04193E1E2F1E0A8
:0200D800089589
:00000001FF
