:100000000C9437000C9401100C9401100C94011006
:100010000C9401100C9401100C9401100C9401101C
:100020000C9401100C9401100C9401100C9401100C
:100030000C9401100C9401100C9401100C940110FC
:100040000C9401100C9401100C9401100C940110EC
:100050000C9401100C9401100C9401100C940110DC
:100060000C9401100C940110010001038000112474
:100070001FBECFEFD8E0DEBFCDBFE8E6F0E040E046
:1000800017C0B591A59135912591059107FD0CC03B
:1000900095918591EF01F92FE82F05900D92A21708
:1000A000B307D9F7FE0104C01D92A217B307E1F709
:1000B000ED36F40731F70E94AE0D0C94CB0FF89497
:0200C000FFCF70
:1000C200496E697469616C697A696E672E2E2E00B9
:1000D2002575004C2000456E7669616E646F205470
:1000E200656D7020202000456E7669616E646F2018
:1000F20048756D6564616400456E766961646F215F
:10010200202020202000543A2000483A2000456E4A
:10011200762042797465204C445242757A7A2000E6
:100122004461746F7320456E766961646F73212038
:020132002000AB
:1001340068076C094C836A9074A07AC00080688850
:0601440000846C820081C2
:07014A00286E756C6C2900A2
:06015100286E696C290014
:10015800A3EAB0E0E2EBF0E00C94500E4C01590138
:10016800C756DF4F488359836A83C959D040212C29
:10017800312C6E012BE8C20ED11C85E2782E2601A7
:1001880030E8632ECE018D569F4FC456DF4F9983BA
:100198008883CC59D0409C0140E8CF55DF4F288355
:1001A80039834A83C15AD040C756DF4F4881C9595D
:1001B800D040C656DF4F5881CA59D040C556DF4F88
:1001C8006881CB59D040FA01849167FD80818823EA
:1001D80009F4C9C3CF57DF4F19821882C158D040DC
:1001E8008FEF9FEFCD57DF4F99838883C358D04057
:1001F800CB57DF4F19821882C558D040A1E0B0E034
:10020800AC0FBD1FC957DF4FB983A883C758D0406B
:10021800E0E8F0E0C757DF4FF983E883C958D040DA
:10022800CA01A62FE12CF12CFC012491A7FD208105
:1002380021111BC0E114F10401F19701C4010E94CE
:10024800240DC756DF4F88819981AA81C959D040AA
:100258008E0D9F1DA11DF7FCAA95C756DF4F8883F9
:100268009983AA83C959D04008C00196A11D253297
:1002780009F3FFEFEF1AFF0AD7CFC756DF4F888180
:100288009981AA81C959D040FC012491A7FD2081F8
:10029800253209F056C39C014A2F2F5F3F4F4F4F1D
:1002A800C256DF4F288339834A83CE59D040C75678
:1002B800DF4F288339834A83C959D040C756DF4F57
:1002C80088819981AA81C959D040FC012491A7FD50
:1002D80020812B3241F4CF57DF4F28813981C15813
:1002E800D04024600BC02C32CCF02D3259F5CF57BA
:1002F800DF4F28813981C158D0402160CF57DF4F67
:1003080039832883C158D0400196A11DC756DF4FB5
:1003180088839983AA83C959D040D0CF203241F429
:10032800CF57DF4F28813981C158D0402860E6CFA8
:10033800233291F4CF57DF4F28813981C158D040FB
:100348002061DCCF203341F4CF57DF4F288139813A
:10035800C158D0402260D2CF2A3299F50196A11D0A
:10036800C756DF4F88839983AA83C959D040D501DE
:10037800ED91FC911197CF0102968D939C9380810A
:100388009181CB57DF4F99838883C558D04097FF19
:100398003EC0CF57DF4F28813981C158D040B1E0E6
:1003A8002B27CF57DF4F39832883C158D0409195E9
:1003B80081959109CB57DF4F99838883C558D040E1
:1003C80026C0BC018A2F0E946A0CCB57DF4F998345
:1003D8008883C558D040C756DF4F288139814A8164
:1003E800C959D040F901849147FD8081082E000C3D
:1003F800990BC0970A9758F42F5F3F4F4F4FC75636
:10040800DF4F288339834A83C959D040E4CFCF5777
:10041800DF4F88819981C158D04080FF07C08D7F08
:10042800CF57DF4F99838883C158D040C756DF4FD5
:1004380088819981AA81C959D040FC012491A7FDDE
:1004480020812E3209F058C0CD57DF4F198218820B
:10045800C358D0409C014A2F2F5F3F4F4F4FC7567C
:10046800DF4F288339834A83C959D040F901549111
:1004780047FD50815A32D1F40296A11DC756DF4F6D
:1004880088839983AA83C959D040D501ED91FC91FD
:100498001197CF0102968D939C9380819181CD57BE
:1004A800DF4F99838883C358D04026C0842FB90171
:1004B8000E946A0CCD57DF4F99838883C358D04078
:1004C800C756DF4F288139814A81C959D040F9017F
:1004D800849147FD8081082E000C990BC0970A97DC
:1004E80058F42F5F3F4F4F4FC756DF4F288339834C
:1004F8004A83C959D040E4CFCE0187569F4F0E9406
:10050800D20B182FC756DF4F2881C959D040C6567D
:10051800DF4F8881CA59D040C556DF4F9881CB59E3
:10052800D040E22FF82F849197FD8081082E000C8F
:10053800990B0E94E80F8936910509F45AC0B4F462
:100548008336910509F466C144F48532910509F4AE
:10055800A1C18136910529F1B3C18436910509F409
:1005680048C0883691050CF42DC1AAC18037910581
:1005780009F4CBC04CF48E36910509F419C18F36B5
:10058800910509F47CC09CC18537910509F454C0D4
:100598008837910509F496C08337910509F090C111
:1005A80058C1612F70E0A501C6010E94F40D892B86
:1005B80009F4B7C1C756DF4F88819981AA81C95903
:1005C800D0409C014A2F2F5F3F4F4F4FC756DF4FF8
:1005D800288339834A83C959D040FC012491A7FD57
:1005E8002081A601BE016F577F4FC4010E94FE0FF4
:1005F80095C1612F70E0950141E050E0C6010E946D
:10060800BC06892B09F48DC1C756DF4F88819981B3
:10061800AA81C959D0400196A11DC756DF4F8883CA
:100628009983AA83C959D040A601BE016F577F4F4D
:10063800C4010E94FD0572C1612F70E0950140E080
:1006480050E0C6010E94BC06892B09F46AC1C7564E
:10065800DF4F88819981AA81C959D0400196A11D8F
:10066800C756DF4F88839983AA83C959D040A6010A
:10067800BE016F577F4FC4010E94850A4FC1612F89
:1006880070E0950140E050E0C6010E94BC06892B4D
:1006980009F447C1C756DF4F88819981AA81C95992
:1006A800D0400196A11DC756DF4F88839983AA833E
:1006B800C959D040A601BE016F577F4FC4010E949F
:1006C800B6092CC1612F70E0950140E050E0C601E9
:1006D8000E94BC06892B09F424C1C756DF4F8881C4
:1006E8009981AA81C959D0409C014A2F2F5F3F4F59
:1006F8004F4FC756DF4F288339834A83C959D040A3
:10070800FC012491A7FD20814BC0950140E050E0F9
:1007180060EF70E0C6010E94BC06892B09F401C194
:10072800C756DF4F88819981AA81C959D04001965F
:10073800A11DC756DF4F88839983AA83C959D04022
:1007480086E021E531E040E0F901DE01AD56BF4F1A
:10075800742F0E94A60FD6012C9111963C911197E7
:1007680012964C91129713965C91139714966C916C
:10077800149715967C91159716968C91169717963F
:100788009C91A0E00E94BF0F51F400E010E0CF550B
:10079800DF4F288139814A81C15AD040B9C028E742
:1007A800A601BE016F577F4FC4010E94BD04B6C0A9
:1007B800612F70E09501A1014E0D5F1DC6010E94D9
:1007C8004A09AFC0612F70E0A501C6010E94F40D6F
:1007D800892B09F4A6C0C756DF4F88819981AA8161
:1007E800C959D0409C014A2F2F5F3F4F4F4FC756E2
:1007F800DF4F288339834A83C959D040FC012491AB
:10080800A7FD2081A601BE016F577F4FC4010E943A
:10081800FE0F84C0103809F084C0C756DF4F8881A6
:100828009981AA81C959D0400196A11DC756DF4FA9
:1008380088839983AA83C959D040D501ED91FC9149
:100848001197CF0102968D939C938081F601808346
:100858005BC0103809F065C0C756DF4F88819981A1
:10086800AA81C959D0400196A11DC756DF4F888378
:100878009983AA83C959D040D501ED91FC9111976C
:10088800CF0103968D939C9320813181428100E0B2
:1008980010E03EC0103809F044C0C756DF4F8881C9
:1008A8009981AA81C959D0400196A11DC756DF4F29
:1008B80088839983AA83C959D040F601708224C0DD
:1008C800D6017C92C256DF4F288139814A81CE59A0
:1008D800D040C756DF4F288339834A83C959D0404F
:1008E800CF57DF4F19821882C158D040CB57DF4FFE
:1008F80019821882C558D0408FEF9FEFCD57DF4F30
:1009080099838883C358D04001E010E0462D9201B6
:10091800BE016F577F4FC4010E94200A8E0D9F1D94
:1009280011C0C756DF4F88819981AA81C959D04023
:100938000196A11DC756DF4F88839983AA83C95999
:10094800D040C7017101E80EF91EE214F3044CF41B
:100958008FE490E090930101809300018FEF9FEF67
:1009680003C0170121CCC101CD55DF4FE2E10C9442
:020978006C0E03
:10097A00A4E1B0E0E3ECF4E00C94500E98878F8386
:10098A007A8369835C8B4B8B122FDB011296ED9174
:10099A00FC91139714962D913C9115973E832D83C4
:1009AA00ED90FC90119716962D903C901797F7FDB5
:1009BA0003C0E894E1F802C0E1E0F0E0C701807109
:1009CA0099279A878987E4FE1FC0AB89BC892C9135
:1009DA0011963C91119712964C91129713965C912D
:1009EA00139714966C91149715967C9115971696F1
:1009FA008C91169717969C91A0E00E94BF0F21F048
:100A0A008D819E81029702C08D819E8197012870F7
:100A1A0033273C872B87E3FC0197AB89BC894C9031
:100A2A0011965C90119712966C90129713967C907F
:100A3A00139714968C90149715969C901597169662
:100A4A00AC9016971796BC90A981BA811896CD904A
:100A5A00DC901997B1E0CB1AD108D101AC0DBD1DBC
:100A6A001C929C838B839F01281B390B3E872D8701
:100A7A00C70182709927988B8F87812F012E000CCE
:100A8A00990BDC01A154B109BA8BA98B32E0C316C8
:100A9A00D10434F489859A85892B09F04CC073C036
:100AAA009201A301B401C501A0E00E94BF0F81F128
:100ABA00B1E0CB1AD108C2018F7099278A3091050B
:100ACA0014F4C09602C0895A9F4FE989FA897A9725
:100ADA0048F49C012062215631092A31310510F46B
:100AEA000E94DF0FF101EC0DFD1D80832B813C81FB
:100AFA00215031093C832B839201A301B401C50122
:100B0A0004E00E94340E29013A014B015C01BECF78
:100B1A008D859E85AB81BC818A0F9B1F181619068D
:100B2A003CF21A161B060CF0B5CFEF85F889EF2BAD
:100B3A0009F0BECFAFCFAB89BC892C9111963C91FD
:100B4A00119712964C91129713965C9113971496DB
:100B5A006C91149715967C91159716968C91169709
:100B6A0017969C91A0E00E94BF0F69F0F101EC0D6D
:100B7A00FD1D31971083B2E0CB1AD108F101EC0DBB
:100B8A00FD1D80E38083EB85FC85EF2B41F0F1E0CE
:100B9A00CF1AD108F101EC0DFD1D80E28083A981F5
:100BAA00BA8118962D913C911997215031092C1927
:100BBA003D09C20CD31CA60160E80D811E818F81FC
:100BCA0098850E94C3089C01EF81F88580819181F4
:100BDA0090FF09C0A981BA8112968D919C911397B1
:100BEA00821793070CF4C9016496E2E10C946C0E27
:100BFA00ADE0B0E0E3E0F6E00C94500E9A87898706
:100C0A007C836B83FA01DB011296CD90DC901397FB
:100C1A0014968D919C9115979E838D83ED90FC90EF
:100C2A001197FA82E98216960D90BC91A02DB88789
:100C3A00AF832080318042805380648075808680B3
:100C4A0097808101B42DF52DE62D7B868C869D86B5
:100C5A009101A201B301C401A0E00E94BF0F4CF4AC
:100C6A000E94410F8901B42FF52FE62F7B878C87CD
:100C7A009D87D7FC04C0E894E1F8FA82E9829101E1
:100C8A00A201B301C401A0E0ED80FE800E94BF0F63
:100C9A001CF0898182FF04C081E0E81AF10805C0CE
:100CAA0083FF03C091E0E91AF108CE0101965C01C5
:100CBA008AE0C82ED12C2B2F3F2F4E2F5B856C85B7
:100CCA007D858B819C810E941E08FC019101A201F5
:100CDA00B301C401A0E00E94BF0F1CF0898182FF0A
:100CEA0012C031970F8118850E0F1F1F9101A201A3
:100CFA00B301C401A0E00E94BF0F14F08BE201C04F
:100D0A008DE2D80108C083FF07C03197AF81B8854B
:100D1A00AE0FBF1F80E28C93E980FA80AB81BC8161
:100D2A0018962D913C911997215031092E1B3F0B92
:100D3A008F819885E80FF91FAF0160E80D811E8148
:100D4A0089859A850E94C3089C01A985BA858D91D7
:100D5A009C9190FF07C0EB81FC818281938182176D
:0E0D6A0093070CF4C9012D96E2E10C946C0E77
:100D78000F931F93CF93DF93FC01D9016838710556
:100D880031F194F461387105B1F12CF460387105D2
:100D980009F478C09FC06238710509F459C06438F5
:100DA800710509F46FC096C0603A710509F448C02E
:100DB8002CF46039710509F44BC08CC0603C710596
:100DC80009F476C0603F710509F472C083C0CD9103
:100DD800DC911197CE0102968D939C93452B39F0A7
:100DE8009881892F880F880B908381835BC08881C5
:100DF8008083118268C0CD91DC911197CE01049651
:100E08008D939C93452B99F088819981AA81BB8108
:100E1800AC01BD01770F440B542FBA018083918335
:100E2800A283B383448345834683478328C00881CC
:100E380019812A813B81008311832283338345C032
:100E4800CD91DC911197CE0102968D939C9323C08E
:100E5800CD91DC911197CE0108968D939C93788162
:100E680069815A814B813C812D819E818F8170835C
:100E7800618352834383348325839683878381E008
:100E880090E02AC0CD91DC911197CE0102968D9306
:100E98009C93452BA1F099812881892F880F880B75
:100EA8002083918382838383848385838683E6CFAB
:100EB800CD91DC911197CE0102968D939C93088178
:100EC800198100831183128213821482158216827B
:100ED8001782D5CF80E090E0DF91CF911F910F91DD
:020EE80008956B
:100EEA00EF92FF920F931F93CF93DF93CDB7DEB7A5
:100EFA00AD970FB6F894DEBF0FBECDBF0E949F0E0E
:100F0A000E94140ECE0101960E94580D00E010E0D6
:100F1A0065C00330110594F480EC0E941E0F68ED41
:100F2A0070E080E00E94B60E2FEF45EA5EE02150A5
:100F3A0040405040E1F700C0000014C003301105E2
:100F4A008CF080EC0E941E0F69EE70E080E00E9437
:100F5A00B60E8FEF95EAEEE081509040E040E1F75F
:100F6A0000C00000EE24E394F12CEC0EFD1EE00E0E
:100F7A00F11E62E0F70180810E94D40D8FE39CE9A3
:100F8A000197F1F700C00000F7012081C801880F1E
:100F9A00991F880F991F880F991F46E050E04C0F40
:100FAA005D1F840F951F1F922F9322ED30E040E0C2
:100FBA004F933F932F939F938F930E940B0F80EC35
:100FCA000E941E0F6AEF70E080E00E94B60E0F5F6B
:100FDA001F4F0FB6F894DEBF0FBECDBF0530110507
:100FEA000CF497CF80E80E941E0F68E071E080E061
:100FFA000E94B60E8E010A5F1F4FBE016A5E7F4FC6
:10100A0080E80E94B60E6CE071E080E00E94B60EA5
:10101A00B80180E80E94B60EAD960FB6F894DEBF0E
:10102A000FBECDBFDF91CF911F910F91FF90EF902F
:02103A00089517
:10103C00A2E1B0E0E4E2F8E00C94500EFC010A8B63
:10104C001B832C83732E642E552E462E7D83CC86CB
:10105C00D886BF82AE82868197819B878A87D5018D
:10106C004D915C91228133818085918501971C0182
:10107C0037FF02C021E030E0EA85FB85E80FF91F5D
:10108C0010824701E1E0F0E0FA83E983C9018E198F
:10109C009F099E878D87DA01A270BB27B88BAF871B
:1010AC00B885BB0FBB0BB98B1214130474F0A98158
:1010BC00BA81AB2B09F05CC0AE81BF818D919C9144
:1010CC0011978F7E8D939C9353C02A893B814C81C1
:1010DC00572D662D752D842D9D81A0E00E94BF0F8C
:1010EC00B1F1E1E02E1A3108FC85F987AF2EB884F6
:1010FC00C988DC2CEC2CFC2C0C2D1C2D2A893B815A
:10110C004C81572D662D752D842D9D810E948B0F42
:10111C00C90129839A83EA85FB85E20DF31D805D65
:10112C00808381E0881A91082A893B814C81572D54
:10113C00662D752D842D9D810E948D0F2A8B3B83EE
:10114C004C83752E662E572E482E9D83ADCF8D85E4
:10115C009E85880D991D181619061CF21814190471
:10116C000CF0A5CFEF85F889EF2B09F0BACF9FCF04
:0A117C00C1016296E2E10C946C0ED2
:101186002F923F924F926F927F928F92AF92BF9221
:10119600CF92DF92EF92FF920F931F93CF93DF933D
:1011A600CDB7DEB766970FB6F894DEBF0FBECDBFDC
:1011B6005C013A01862E6901C701817099279C8BD3
:1011C6008B8BE0FC1DC020173107D4F47801EC1896
:1011D600FD08FE8AED8AA70191E1E916F10410F0F7
:1011E60040E150E060E270E0CE0101969A8B898B77
:1011F6000E94D60F89899A891C0120E8422E0BC0CD
:101206009601682DA301C5010E94240DC016D106C2
:10121600ECF2C60125C090E1E916F10458F020E190
:1012260030E0642DA101C5010E94240D80E1E81A79
:10123600F108F1CF2D893E892F70332789899A8944
:10124600AC0160E8C5010E94240D8B899C89892B1D
:1012560031F49601682DA301C5010E94240DC80131
:1012660066960FB6F894DEBF0FBECDBFDF91CF9165
:101276001F910F91FF90EF90DF90CF90BF90AF90AE
:0E1286008F907F906F904F903F902F90089523
:10129400CF93DF93DC01F90164387105D9F164F46B
:1012A4006138710521F16238710509F440C0603874
:1012B400710509F054C02EC060397105C1F184F480
:1012C4006838710509F04BC0C081D181CE01029606
:1012D40091838083E881F981ED93FC9340833CC042
:1012E400603A7105B9F0603C7105A1F038C0C08165
:1012F400D181CE01029691838083E881F981ED93B7
:10130400FC93052E000C660B770B4083518362839C
:10131400738322C0C081D181CE01029691838083E0
:10132400E881F981ED93FC935183408315C0C0811A
:10133400D181CE01029691838083E881F981ED9376
:10134400FC9351834083852F880F880B828383838A
:10135400848385838683878381E090E002C080E074
:0813640090E0DF91CF910895A4
:10136C00A2E0B0E0ECEBF9E00C94500E1C014B0148
:10137C00FA01DB0112962D913C91139714964D9026
:10138C005C9015978D919C9111979A8389831696F1
:10139C006D907C90179737FD03C08D7F9A8389835E
:1013AC00008111812281338144815581668177814D
:1013BC00FE0131965F0188E0C82ED12C7201C40168
:1013CC000E941E08298124FF06C00197F301E80F33
:1013DC00F91F20E32083298123FF06C00197F30125
:1013EC00E80FF91F20E22083E980FA80D4011896D7
:1013FC002D913C91199721503109281B390B860DE1
:10140C00971DAC0160E88201C1010E94C3089C01D8
:10141C00F1018081918190FF08C0D40112968D91C9
:10142C009C911397821793070CF4C9012296E2E161
:04143C000C946C0E92
:101440002F923F924F926F927F928F92AF92BF9264
:10145000CF92DF92EF92FF920F931F93CF93DF9380
:10146000CDB7DEB727970FB6F894DEBF0FBECDBF5E
:101470006C017B013901842E98018AE4282E81E0D9
:10148000382E80E0482E87E0F101AE014F5F5F4FBC
:10149000DA01742D0E94A60FF70102811381A48046
:1014A000B580E080F18061147104810419F43A017F
:1014B000F0E88F2E2115310529F4882DB3010E9403
:1014C000CC0E9C0117FD04C00217130708F4980105
:1014D0008501682DA301C6010E94C30827960FB697
:1014E000F894DEBF0FBECDBFDF91CF911F910F915A
:1014F000FF90EF90DF90CF90BF90AF908F907F9054
:0A1500006F904F903F902F900895D8
:10150A00A2E0B0E0EBE8FAE00C94500E3C014B018B
:10151A00FA01DB0112962D913C91139714964D9086
:10152A005C9015978D919C9111979A838983169651
:10153A002D903C90179737FD03C08D7F9A8389833E
:10154A0000811181228133814481558166817781AD
:10155A00FE0131965F018AE0C82ED12C7201C401C6
:10156A000E941E08E980FA80D40118962D913C91B8
:10157A00199721503109281B390B820D931DAC0193
:10158A0060E88201C3010E94C3089C01F3018081C3
:10159A00918190FF08C0D40112968D919C91139766
:1015AA00821793070CF4C9012296E2E10C946C0E9F
:1015BA00CF92DF92FF920F931F93CF93DF9300D0C6
:1015CA0000D000D0CDB7DEB7F82E83E00E94E20E3D
:1015DA006C018BE80E941E0FDF92CF9282ED90E0A1
:1015EA00A0E0AF939F938F938E010F5F1F4F1F93BE
:1015FA000F930E940B0F65ED70E080E00E94B60E1B
:10160A00B80180E80E94B60E2FEF81EE94E02150D7
:10161A0080409040E1F700C000000FB6F894DEBFAA
:10162A000FBECDBF99E5C91692E0D90618F48F2DE1
:10163A00816002C08F2D8E7F26960FB6F894DEBF8A
:10164A000FBECDBFDF91CF911F910F91FF90DF9019
:04165A00CF90089590
:10165E006F927F928F92EF92FF920F931F93CF9381
:10166E00DF93CDB7DEB761970FB6F894DEBF0FBE2E
:10167E00CDBFFE01319651E1DF011D925A95E9F77A
:10168E00A2E0B1E0BA83A9839C838B8377FF09C064
:10169E008FE490E090930101809300018FEF9FEF14
:1016AE0019C03901842E7C01615071097F836E83CC
:1016BE009801682DA301CF010E94870E4885598598
:1016CE002E813F814217530708F49A01F701E20F6A
:1016DE00F31F108261960FB6F894DEBF0FBECDBF1A
:1016EE00DF91CF911F910F91FF90EF908F907F9090
:0416FE006F9008954C
:1017020088249924F401E401B0E49F93AA279A154E
:101712008B049C04ED05FE05CF05D007A10798F4C4
:10172200AD2FDC2FCF2FFE2FE92D982C892E982F4D
:10173200872F762F652F542F432F322F2227B85011
:1017420031F7BF9127C01B2EBF91BB27220F331F3A
:10175200441F551F661F771F881F991F881C991CDD
:10176200EE1FFF1FCC1FDD1FAA1FBB1F8A149B0485
:10177200EC05FD05CE05DF05A007B10748F08A1884
:101782009B08EC09FD09CE09DF09A00BB10B216012
:101792001A94E1F62EF49401AF01BE01CD01000CC2
:0217A2000895A8
:1017A400CF92DF92EF92DC0190E0292F30E0220FFC
:1017B400331F6901032E000CEE086E2DA6014C5C4C
:1017C4005E4F6F4F6A01E62EFA018491E7FC808137
:1017D40081110DC02F5F3F4F032E000C440B2C5C76
:1017E4003E4F4F4FF901849147FD808124C0CD9035
:1017F400DD90EC901297F6014491E7FC408184134C
:1018040015C02F5F3F4F032E000C440B2C5C3E4F42
:101814004F4FF901949147FD90815FEFC51AD50AA6
:10182400E50ACD92DD92EC92129701C09F5F9B3046
:0E18340008F4BBCF892FEF90DF90CF9008957E
:101842000F931F93CF93DF93DB012D913C9111975F
:1018520030FF25C017964D915C91189715962D91E2
:101862003C9116974217530778F41296ED91FC912A
:101872001397808312962D913C9113972F5F3F4FC0
:1018820013963C932E93129717962D913C9118978D
:101892002F5F3F4F18963C932E93179715C01D96B6
:1018A200ED91FC911E97309719F48FEF9FEF0CC0CA
:1018B2008B01EC010995892BC1F7F801878190858D
:1018C200019690878783CE01DF91CF911F910F916F
:0218D200089577
:1018D400CF939B01482FF901849147FD8081803289
:1018E400C9F1682F082E000C770B69507109653017
:1018F400710580F18B3249F5A0E0B0E02F5F3F4FD6
:101904004F4F02C0A0E0B0E080E090E0CAE0F901EF
:10191400649147FD6081062E000C770B60537109BA
:101924006A30710560F4C89FF001C99FF00D11245D
:101934002F5F3F4F4F4FCF01861B970BE8CFAB2B49
:1019440069F491958195910909C08D32D9F6A1E088
:10195400B0E0D4CF2F5F3F4F4F4FBDCFCF9108950D
:10196400CF93C82F809102018F709C2F907F892B79
:101974008460809302010E946F0F85E08A95F1F7DD
:101984000000809102018B7F809302010E946F0FFF
:101994008AE18A95F1F700C080E1C89F9001112483
:1019A400809102018F70822B8460809302010E94D7
:1019B4006F0F85E08A95F1F70000809102018B7F1B
:1019C400809302010E946F0F8AE18A95F1F700C0AB
:0419D400CF91089512
:1019D80084E0809302010E946F0F25E82A95F1F7B1
:1019E800000083E00E941E0F83E00E941E0F83E028
:1019F8000E941E0F82E00E941E0F88E20E941E0FA6
:101A08008FE00E941E0F81E00E941E0F86E00E9458
:101A18001E0F80E80E941E0F62EC70E080E00E94BA
:101A2800B60E8FEF93ED20E3815090402040E1F710
:101A380000C000000E94FA0F80E80E941E0F08955F
:101A48006F927F928F92CF92DF92EF920F931F93B4
:101A5800CF93DF938C016A01E62EE9013A01862EC5
:101A6800620E731E811C37FD8A94C614D704E804DD
:101A780079F0F6018491E7FC8081B801082E000C0A
:101A8800990B0E94210C8FEFC81AD80AE80AEDCFEB
:101A9800CE01DF91CF911F910F91EF90DF90CF9002
:081AA8008F907F906F9008956C
:101AB000CF93DF93EC01E0E0F0E023C04A9BFECF40
:101AC00080EA8A95F1F74A9B0CC067E070E0621BE0
:101AD000730B41E050E002C0440F551F6A95E2F7D6
:101AE000942B4A99FECF2F5F3F4F03C020E030E098
:101AF00090E02830310514F3DE01AE0FBF1F9C9338
:0E1B00003196E530F10594F3DF91CF91089511
:101B0E00CF93C82F80EC0E941E0F60E171E080E041
:101B1E000E94B60E2FEF85EA9EE021508040904045
:101B2E00E1F700C0000062E08C2F0E94D40D8FE31D
:101B3E009CE90197F1F700C0000080EC0E941E0F97
:0E1B4E0062E271E080E00E94B60ECF91089531
:101B5C000E94F70E0E94EC0C80E80E941E0F0E945F
:101B6C00FA0F0E94300F0E94F00F8FE39CE901974F
:101B7C00F1F700C00000C0E00E9475078C2F0E9496
:101B8C00DD0AC82F0E94870D9FEF29E688E191504E
:0C1B9C0020408040E1F700C00000EECFC8
:101BA80095B121E030E002C0220F331F6A95E2F7B9
:101BB800422F4095942395B9EFE3FCE93197F1F76B
:101BC80000C000008EBD0DB407FEFDCF8FE39CE979
:101BD8000197F1F700C0000085B1282B25B90895B9
:101BE800FA0160387105CCF0623871051CF0633871
:101BF800710599F4A081B1819D012C5F3F4F31831C
:101C080020834D915D916D917C91FC0140835183BE
:101C18006283738381E090E0089580E090E0089506
:101C28008AB18B7F8AB985ED8A95F1F700004A99C8
:101C380013C08FE391E00197F1F700C0000099B15C
:101C4800892F847092FF09C08FE391E00197F1F723
:0C1C580000C0000081E0089580E00895C5
:101C640097FB10F8169400080F93083098F008506A
:101C7400232F342F452F562F672F782F892F902D00
:101C8400F4CF0594979587957795679557954795DC
:0C1C9400379527950A95AAF70F9108953F
:101CA0002F923F924F925F926F927F928F929F926C
:101CB000AF92BF92CF92DF92EF92FF920F931F935A
:101CC000CF93DF93CDB7DEB7CA1BDB0B0FB6F8940B
:081CD000DEBF0FBECDBF099479
:101CD8002A88398848885F846E847D848C849B84B4
:101CE800AA84B984C884DF80EE80FD800C811B81C2
:101CF800AA81B981CE0FD11D0FB6F894DEBF0FBEF1
:061D0800CDBFED010895BE
:101D0E00A2E0B0E0EDE8FEE00C945E0E8C013A83AA
:101D1E0029839E012F5F3F4F0E94AC00F801208166
:101D2E0024FF02C08FEF9FEF2296E4E00C947A0E10
:101D3E008AB184608AB98BB18B7F8BB92FEF80EE1D
:101D4E0090E0215080409040E1F700C000008BB140
:0E1D5E0084608BB925ED2A95F1F700000895F9
:101D6C00CF92DF92EF926B01E82E06C09FEFC91A5B
:101D7C00D90AE90A0E947D0FF6018491E7FC808163
:0C1D8C008111F4CFEF90DF90CF9008950C
:101D9800CF92DF92EF926B01E82EA82FCB01FC01C6
:101DA8002491A7FD2081222319F00196A11DF7CFC8
:0C1DB8008C199D09EF90DF90CF900895EA
:101DC400ECE7F0E09081907F8F70892B8083EAE7C5
:101DD400F0E080818064808380917A0086FDFCCF6E
:0A1DE4008091780090917900089535
:101DEE0083E087B988B9ECEBF0E080818B7F80834C
:101DFE001092B9008CE08093B80084E0808385E374
:081E0E008A95F1F70000089528
:101E1600A0E0B0E0E1E1FFE00C94600E9E01265FD9
:101E26003F4F4F81588569858D819E810E94B30FF2
:061E3600E2E00C947C0EBA
:101E3C00CF93C82F88E0809302010E946F0F8C2FE4
:101E4C000E94B20C8FE99FE00197F1F700C00000EF
:041E5C00CF91089585
:101E6000ECE7F0E080818064808380818F7D8083D7
:101E7000EAE7F0E0808186608083808180688083EB
:021E80000895C3
:101E820060957095809590953095409550952195E7
:101E92003F4F4F4F5F4F6F4F7F4F8F4F9F4F089571
:101EA2008093BB0084E88093BC008091BC008823AF
:0E1EB200E4F78091B900887F8831D9F7089550
:101EC0008093BB0084E88093BC008091BC00882391
:0E1ED000E4F78091B900887F8832D9F7089531
:101EDE00CF93C82F0E94990F8EE40E94510F8C2F22
:0C1EEE000E94600F0E94F60FCF91089533
:101EFA00CF93C82F809102018960809302010E94CA
:0C1F0A006F0F8C2F0E94B20CCF91089535
:101F1600689401C0E8948F929F92CF93DF930E94BA
:0C1F2600810BDF91CF919F908F90089568
:101F320084EA8093BC008091BC008823E4F78091FE
:0A1F4200B900887F8830D9F70895B0
:101F4C00992777FD05C005900D920197E1F708954B
:0A1F5C0001900D920197E1F708953E
:101F66000F931F9389019A01462F6FEF7FE70E9417
:081F76002F0B1F910F9108953C
:101F7E000024A7FD00942A17300540055005600582
:081F8E0070058005900508951F
:101F9600EC010E9406100E940510CE010E94071057
:061FA600CE010E940310B1
:101FAC00FC01480F591FE417F50711F06193FBCFA3
:021FBC00089586
:101FBE009C01215631092A31310510F48F7599276C
:021FCE00089574
:101FD0009C01215431092A31310508F480620895A9
:0C1FE00084B18C6784B981ED8CBD08953C
:081FEC0084E98093BC00089514
:081FF40081E00E941E0F089518
:061FFC0080E090E0089572
:042002000C9400003A
:042006000E945F00D5
:02200A00089537
:02200C00089535
:02200E00089533
:00000001FF
