:100000000C9437000C94EF010C94EF010C94EF0169
:100010000C94EF010C94EF010C94EF010C94EF01A0
:100020000C94EF010C94EF010C94EF010C94EF0190
:100030000C94EF010C94EF010C94EF010C94EF0180
:100040000C94EF010C94EF010C94EF010C94EF0170
:100050000C94EF010C94EF010C94EF010C94EF0160
:100060000C94EF010C94EF010100010180001124B8
:100070001FBECFEFD8E0DEBFCDBFE8E6F0E040E046
:1000800017C0B591A59135912591059107FD0CC03B
:1000900095918591EF01F92FE82F05900D92A21708
:1000A000B307D9F7FE0104C01D92A217B307E1F709
:1000B000ED36F40731F70E94E2000C94D601F89473
:0200C000FFCF70
:1000C200496E697469616C697A696E672E2E2E00B9
:0D00D2004C696E6561204D6961752121004A
:1000E000CF93C82F809100018F709C2F907F892B18
:1000F0008460809300010E94A10185E08A95F1F758
:100100000000809100018B7F809300010E94A1017B
:100110008AE18A95F1F700C080E1C89F900111241F
:10012000809100018F70822B8460809300010E9477
:10013000A10185E08A95F1F70000809100018B7F95
:10014000809300010E94A1018AE18A95F1F700C025
:04015000CF910895AE
:1001540084E0809300010E94A10125E82A95F1F72B
:10016400000083E00E94CA0183E00E94CA0183E088
:100174000E94CA0182E00E94CA0188E20E94CA0168
:100184008FE00E94CA0181E00E94CA0186E00E94B9
:10019400CA0180E80E94CA0162EC70E080E00E941B
:1001A40033018FEF93ED20E3815090402040E1F73D
:1001B40000C000000E94EB0180E80E94CA0108957B
:1001C4000E945E010E94AA0080E80E94CA010E9467
:1001D400EB010E9472010E94E1018FE39CE9019707
:1001E400F1F700C00000C0E083E00E9449018C01E7
:1001F40080EC0E94CA0162ED70E080E00E9433014D
:100204000935124010F4C16001C0C17062E08C2F46
:100214000E9413018FE39CE90197F1F700C00000ED
:02022400E3CF26
:1002260095B121E030E002C0220F331F6A95E2F754
:10023600422F4095942395B9EFE3FCE93197F1F706
:1002460000C000008EBD0DB407FEFDCF8FE39CE914
:100256000197F1F700C0000085B1282B25B9089554
:10026600CF92DF92EF926B01E82E06C09FEFC91A7C
:10027600D90AE90A0E94AF01F6018491E7FC808160
:0C0286008111F4CFEF90DF90CF9008952D
:10029200ECE7F0E09081907F8F70892B8083EAE712
:1002A200F0E080818064808380917A0086FDFCCFBB
:0A02B2008091780090917900089582
:1002BC0083E087B988B9ECEBF0E080818B7F808399
:1002CC001092B9008CE08093B80084E0808385E3C1
:0802DC008A95F1F70000089576
:1002E400ECE7F0E080818064808380818F7D80836F
:1002F400EAE7F0E080818660808380818068808383
:0203040008955A
:100306008093BB0084E88093BC008091BC00882366
:0E031600E4F78091B900887F8831D9F7089507
:100324008093BB0084E88093BC008091BC00882348
:0E033400E4F78091B900887F8832D9F70895E8
:10034200CF93C82F0E94BD018EE40E9483018C2F9F
:0C0352000E9492010E94E701CF910895E3
:10035E00CF93C82F809100018960809300010E9485
:0C036E00A1018C2F0E947000CF91089517
:10037A0084EA8093BC008091BC008823E4F78091D2
:0A038A00B900887F8830D9F7089584
:10039400CF93C82F88E0809300010E94A1018C2F85
:0803A4000E947000CF91089542
:1003AC00EC010E94F4010E94F301CE010E94F501C0
:0603BC00CE010E94F101D8
:0C03C20084B18C6784B981ED8CBD089576
:0803CE0084E98093BC0008954E
:0803D60081E00E94CA010895B4
:0403DE000C9400007B
:0403E2000E945F0016
:0203E600089578
:0203E800089576
:0203EA00089574
:00000001FF
