:100000000C9437000C947F020C943E020C9467030E
:100010000C9467030C9467030C9467030C946703B8
:100020000C9467030C9467030C9467030C946703A8
:100030000C9467030C9467030C9467030C94670398
:100040000C9467030C9467030C9467030C94670388
:100050000C9467030C9467030C9467030C94670378
:100060000C9467030C9467030100010180001124C4
:100070001FBECFEFD8E0DEBFCDBFE8E6F0E040E046
:1000800017C0B591A59135912591059107FD0CC03B
:1000900095918591EF01F92FE82F05900D92A21708
:1000A000B307D9F7FE0104C01D92A217B307E1F709
:1000B000ED36F40731F70E94BB020C942C03F89440
:0200C000FFCF70
:1000C2000E944F030E9453030E943F030E94630356
:1000D2000E944B034CE050E06CE070E080E590E061
:1000E2000E94FD0144E050E064E070E08AE590E0A7
:1000F2000E94FD0142E050E062E070E08AE590E09B
:100102000E94FD0143E050E062E070E082E390E093
:100112000E94FD0141E050E061E070E082E390E086
:100122000E94FD0141E050E061E070E082E390E076
:100132000E94B80143E050E062E070E082E390E0A8
:100142000E94B80142E050E062E070E08AE590E08F
:100152000E94B80144E050E064E070E08AE590E07B
:100162000E94B8014CE050E06CE070E080E590E065
:100172000E94B8010E9447034CE050E06CE070E03E
:1001820080E590E00E94B80144E050E064E070E055
:100192008AE590E00E94B80142E050E062E070E03F
:1001A2008AE590E00E94B80143E050E062E070E02E
:1001B20082E390E00E94B80141E050E061E070E02B
:1001C20082E390E00E94B80141E050E061E070E01B
:1001D20082E390E00E94FD0143E050E062E070E0C3
:1001E20082E390E00E94FD0142E050E062E070E0B4
:1001F2008AE590E00E94FD0144E050E064E070E096
:100202008AE590E00E94FD014CE050E06CE070E075
:1002120080E590E00E94FD010E945F034CE050E007
:100222006CE070E080E590E00E94FD0144E050E067
:1002320064E070E08AE590E00E94FD0142E050E057
:1002420062E070E08AE590E00E94FD0143E050E048
:1002520062E070E082E390E00E94FD0141E050E044
:1002620061E070E082E390E00E94FD0141E050E035
:1002720061E070E082E390E00E94B80143E050E068
:1002820062E070E082E390E00E94B80142E050E058
:1002920062E070E08AE590E00E94B80144E050E03C
:1002A20064E070E08AE590E00E94B8014CE050E022
:1002B2006CE070E080E590E00E94B8010E944B0380
:1002C2004CE050E06CE070E080E590E00E94B80104
:1002D20044E050E064E070E08AE590E00E94B801FA
:1002E20042E050E062E070E08AE590E00E94B801EE
:1002F20043E050E062E070E082E390E00E94B801E7
:1003020041E050E061E070E082E390E00E94B801D9
:1003120041E050E061E070E082E390E00E94FD0184
:1003220043E050E062E070E082E390E00E94FD0171
:1003320042E050E062E070E08AE590E00E94FD0158
:1003420044E050E064E070E08AE590E00E94FD0144
:100352004CE050E06CE070E080E590E00E94FD012E
:0E0362000E9457030E945B030E94430308950C
:10037000EF92FF920F931F93CF93DF93EC017B01DA
:100380008A0120E030E02FC085B1877F85B9C9019F
:10039000B7010E94F102FC01892B31F0C901B801BB
:1003A0000E94F102892B19F488B1877F88B989EFFF
:1003B00090E00197F1F700C0000085B1886085B931
:1003C000EF2B31F0C901B8010E94F102892B19F419
:1003D00088B1886088B989EF90E00197F1F700C093
:1003E00000002F5F3F4FC217D30774F6DF91CF9104
:0A03F0001F910F91FF90EF90089508
:1003FA00EF92FF920F931F93CF93DF93EC017B0150
:10040A008A0120E030E02BC088B1877F88B9C90112
:10041A00B7010E94F102FC01892B31F0C901B80130
:10042A000E94F102892B19F485B1877F85B985E885
:10043A008A95F1F7000088B1886088B9EF2B31F00E
:10044A00C901B8010E94F102892B19F485B18860AB
:10045A0085B985E88A95F1F700002F5F3F4FC217EB
:10046A00D30794F6DF91CF911F910F91FF90EF90F0
:02047A000895E3
:10047C001F920F920FB60F9211242F933F934F930D
:10048C005F936F937F938F939F93AF93BF93EF93F0
:10049C00FF930E944F030E94630384E190E00E944B
:1004AC0019030E944F0387EA91E60197F1F700C008
:1004BC0000008BB180628BB99FE926E881E09150F6
:1004CC0020408040E1F700C000008BB18F7D8BB9DC
:1004DC00FF91EF91BF91AF919F918F917F916F9110
:1004EC005F914F913F912F910F900FBE0F901F90E6
:0204FC00189551
:1004FE001F920F920FB60F9211242F933F934F938B
:10050E005F936F937F938F939F93AF93BF93EF936D
:10051E00FF930E944F030E945F0384E190E00E94CC
:10052E00190381E0809300018BB180628BB92FE9B2
:10053E0086E891E0215080409040E1F700C0000035
:10054E008BB18F7D8BB9FF91EF91BF91AF919F9141
:10055E008F917F916F915F914F913F912F910F905E
:08056E000FBE0F901F901895BD
:100576000E94430384B1886384B987B1896387B9CC
:100586008AB180628AB92FE78AE196E021508040DD
:100596009040E1F700C000000E9437030E944F031D
:1005A6000E945F0384E690E00E9419030E946100A6
:0205B600FFCF75
:1005B80088B1877F88B985B1877F85B986EA8A95AA
:1005C800F1F700C088B1886088B985B1886085B9BD
:0A05D80086EA8A95F1F700C0089545
:1005E20097FB072E16F4009407D077FD09D00E94DE
:1005F200050307FC05D03EF4909581959F4F089521
:08060200709561957F4F08958A
:10060A00AA1BBB1B51E107C0AA1FBB1FA617B7072E
:10061A0010F0A61BB70B881F991F5A95A9F780954A
:08062A009095BC01CD0108957B
:100632000F931F93CF93DF938C01C0E0D0E003C0F0
:100642000E94DC022196C017D107D4F3DF91CF912B
:060652001F910F910895B5
:10065800EC010E946C030E946B03CE010E946D03A3
:06066800CE010E946903AF
:10066E008AB18B7F8AB98DB383608DBB78940895E0
:08067E0088B18E7F88B9089550
:0806860088B1816088B9089574
:08068E0088B18F7E88B9089540
:0806960088B1806188B9089564
:08069E0085B1806285B9089561
:0806A60088B1806288B9089553
:0806AE0085B18F7D85B9089527
:0806B60088B18F7D88B9089519
:0806BE0085B1806185B9089542
:0806C60085B18F7E85B908950E
:0406CE000C94000088
:0406D2000E945F0023
:0206D600089585
:0206D800089583
:0206DA00089581
:00000001FF
