:100000000C9434000C94B1000C94C2000C94C20007
:100010000C94C2000C94C2000C94C2000C94C20058
:100020000C94C2000C94C2000C94C2000C94C20048
:100030000C94C2000C94C2000C94C2000C94C20038
:100040000C94C2000C94C2000C94C2000C94C20028
:100050000C94C2000C94C2000C94C2000C94C20018
:100060000C94C2000C94C20011241FBECFEFD8E044
:10007000DEBFCDBF0E945B000C94A600F894FFCFBA
:100080004269656E76656E69646F20616C2070727E
:100090006F6772616D612064656C20706C6F747441
:1000A000657220656E2041746D656761333238502A
:0600B0000D0A000D0A001C
:1000B60087E690E00E949B0084B1886384B987B18B
:1000C600896387B98AB18C628AB90E948B0060E81D
:1000D60070E080E00E94750063EB70E080E00E94B3
:0400E6007500F5CFDD
:1000EA00CF92DF92EF926B01E82E06C09FEFC91AFA
:1000FA00D90AE90A0E94BB00F6018491E7FC8081D3
:0C010A008111F4CFEF90DF90CF900895AA
:100116008AB18B7F8AB9E9E6F0E0808182608083CC
:100126008081816080838DB381608DBB78940895D2
:100136009093C5008093C40088E18093C10086E057
:060146008093C200089541
:10014C00EC010E94C7000E94C600CE010E94C800AC
:06015C00CE010E94C40068
:100162001F920F920FB60F9211240F900FBE0F9095
:040172001F9018952D
:0E0176009091C00095FFFCCF8093C6000895C5
:040184000C940000D7
:040188000E943E0093
:02018C000895D4
:02018E000895D2
:020190000895D0
:00000001FF
