:020000020000FC
:1002000000C008E00EBF0FEF0DBF0FEF0AB921E0ED
:10021000D22F20E0C22F12C018811BB90E941701F3
:1002200019910DECC01711F4D1E0C0E0F5CF5FEFEC
:100230006FEF6A95F1F75A95E1F70895C0E0D1E0C4
:1002400049E449934AE449934BE449934BE4499385
:100250004AE4499349E4499349E4499349E4499379
:1002600049E4499348E4499347E4499345E4499371
:1002700044E4499343E4499343E4499343E4499371
:1002800044E4499344E4499343E4499341E4499362
:100290004EE349934DE349934BE3499349E3499333
:1002A00048E3499347E3499347E3499346E3499336
:1002B00046E3499346E3499347E3499347E3499328
:1002C00047E3499347E3499347E3499347E3499316
:1002D00046E3499345E3499343E3499342E3499312
:1002E00041E3499341E3499344E349934DE34993FF
:1002F0004DE4499345E6499344E8499349EA4993D3
:100300004FEC49934EEE49934FEF49934EEF49938B
:100310004AEE499346EC49934AE949934DE649939D
:1003200044E4499345E2499341E1499345E04993C7
:1003300040E0499341E0499346E049934DE04993B9
:1003400044E149934CE1499344E249934DE2499396
:1003500044E3499347E3499349E349934DE3499380
:1003600040E4499341E4499342E4499343E4499387
:1003700044E4499344E4499345E4499346E449936A
:1003800047E4499347E4499347E4499347E4499351
:1003900047E4499347E4499347E4499348E4499340
:1003A00048E4499348E4499349E4499349E449932B
:1003B0004AE449934BE449934BE449934CE4499311
:1003C0004DE449934EE449934FE4499340E5499302
:1003D00041E5499342E5499343E5499344E549930F
:1003E00046E5499348E549934BE549934DE54993E3
:1003F00040E6499344E6499346E6499348E64993E3
:100400004BE649934DE6499340E7499343E74993C7
:1004100046E7499349E749934BE749934DE74993A9
:100420004EE749934FE749934FE749934FE7499385
:100430004FE749934FE749934EE749934DE7499377
:100440004CE7499349E7499347E7499344E7499380
:1004500041E749934DE649934AE6499342E6499379
:100460004FE549934CE5499349E5499346E549935E
:1004700044E5499341E549934FE449934DE4499359
:100480004CE449934AE4499349E4499348E4499345
:1004900047E4499343E4499343E4499343E449934C
:1004A00044E4499344E4499344E4499345E449933B
:1004B00045E4499345E4499345E4499345E4499328
:1004C00045E4499344E4499344E4499343E449931C
:1004D00043E4499343E4499343E4499342E4499311
:1004E00042E4499342E4499341E4499341E4499306
:1004F00041E4499341E4499341E4499341E44993F8
:1005000041E4499340E4499340E449934FE34993DC
:100510004FE3499340E4499340E4499341E44993CC
:1005200041E4499341E4499341E4499341E44993C7
:1005300041E4499340E4499340E4499340E44993BA
:1005400040E4499340E4499340E4499340E44993AB
:1005500041E4499341E4499341E4499342E4499396
:1005600043E4499344E4499345E4499347E4499378
:0A05700048E4499349E449934FCE53
:00000001FF
