:100000000C9434000C9478010C9478010C947801D1
:100010000C9478010C9478010C9478010C9478017C
:100020000C9478010C9478010C9478010C9478016C
:100030000C9478010C9478010C9478010C9478015C
:100040000C9478010C9478010C9478010C9478014C
:100050000C9478010C9478010C9478010C9478013C
:100060000C9478010C94780111241FBECFEFD8E0D6
:10007000DEBFCDBF0E9433010C945801F894FFCF2E
:1000800080E090E019C025B1206225B92FEF39E654
:1000900048E1215030404040E1F700C0000025B168
:1000A0002F7D25B92FEF39E648E1215030404040FF
:1000B000E1F700C0000001968230910524F38BB176
:1000C00084608BB98FEF93E224EF81509040204001
:1000D000E1F700C000008BB180618BB93FEF4DE3C9
:1000E00089E4315040408040E1F700C000008BB10E
:1000F00088608BB99FEF21EE34E091502040304072
:10010000E1F700C000008BB18F7E8BB94FEF83ED1C
:1001100090E3415080409040E1F700C000008BB177
:100120008B7F8BB92FEF37EA41E6215030404040BA
:10013000E1F700C000008BB180618BB98FEF97EAC7
:1001400021E6815090402040E1F700C000008BB1D3
:0C015000877F8BB98BB18F7E8BB908952F
:10015C0095B19E7F95B9EFE9F1E03197F1F700C0C9
:10016C00000020E030E019C0482F50E0022E02C001
:10017C00559547950A94E2F740FF04C095B19160FC
:10018C0095B903C095B19E7F95B9EFE9F1E0319730
:10019C00F1F700C000002F5F3F4F2830310524F3EA
:1001AC0085B1816085B98FE991E00197F1F700C0C5
:0401BC0000000895A2
:1001C000CF930E940E01C82F0E946A01C0FF03C096
:1001D0000E94400021C0C1FF05C08BB184608BB973
:1001E00082E004C08BB18B7F8BB980E0C2FF05C079
:1001F0009BB190619BB9846003C09BB19F7E9BB90A
:10020000C3FF05C09BB198609BB9886003C09BB1D8
:0C021000977F9BB90E94AE00CF9108952B
:10021C001999FECF8FE991E00197F1F700C000002A
:10022C0020E030E080E013C0199B09C041E050E0B1
:10023C00022E02C0440F551F0A94E2F7842BEFE9FB
:10024C00F1E03197F1F700C000002F5F3F4F2830ED
:0A025C00310554F3199BFECF0895FD
:100266000E9463010E944C0188E40E946A0184B1E5
:10027600806284B98AB18C618AB9199B0E94E000B8
:100286008091C0008823CCF70E9471010E94AE00C5
:02029600F4CFA3
:100298001092C50087E68093C40088E18093C1006E
:0802A80086E08093C200089576
:1002B000EC010E947D010E947C01CE010E947E0122
:0602C000CE010E947A014C
:0E02C60084B1816084B984B18D7F84B90895BC
:0E02D4009091C00095FFFCCF8093C600089566
:0E02E2008091C0008823E4F78091C600089543
:0402F0000C9400006A
:0402F4000E943E0026
:0202F800089567
:0202FA00089565
:0202FC00089563
:00000001FF
