:100000000C9434000C94EE000C94EE000C94EE0072
:100010000C94EE000C94EE000C94EE000C94EE00A8
:100020000C94EE000C94EE000C94EE000C94EE0098
:100030000C94EE000C94EE000C94EE000C94EE0088
:100040000C94EE000C94EE000C94EE000C94EE0078
:100050000C94EE000C94EE000C94EE000C94EE0068
:100060000C94EE000C94EE0011241FBECFEFD8E0EC
:10007000DEBFCDBF0E9472000C94CE00F894FFCF7B
:1000800095B19E7F95B9EFE9F1E03197F1F700C0A6
:10009000000020E030E019C0482F50E0022E02C0DE
:1000A000559547950A94E2F740FF04C095B19160D9
:1000B00095B903C095B19E7F95B9EFE9F1E031970D
:1000C000F1F700C000002F5F3F4F2830310524F3C7
:1000D00085B1816085B98FE991E00197F1F700C0A2
:0400E000000008957F
:1000E4000E94D9000E94C200199910C00E949D006C
:1000F400EFE9FFE03197F1F700C000000E94E00053
:100104008FE99FE00197F1F700C000008091C000E3
:10011400882354F70E94E700EFE9FFE03197F1F7F5
:1001240000C000000E9440008FE99FE00197F1F7B2
:0601340000C00000D9CF5D
:10013A001999FECF8FE991E00197F1F700C000000D
:10014A0020E030E080E013C0199B09C041E050E094
:10015A00022E02C0440F551F0A94E2F7842BEFE9DE
:10016A00F1E03197F1F700C000002F5F3F4F2830D0
:0A017A00310554F3199BFECF0895E0
:100184001092C50087E68093C40088E18093C10083
:0801940086E08093C20008958B
:10019C00EC010E94F3000E94F200CE010E94F400D8
:0601AC00CE010E94F000EC
:0E01B20084B1816084B984B18D7F84B90895D1
:0E01C0009091C00095FFFCCF8093C60008957B
:0E01CE008091C0008823E4F78091C600089558
:0401DC000C9400007F
:0401E0000E943E003B
:0201E40008957C
:0201E60008957A
:0201E800089578
:00000001FF
