:020000020000FC
:0200000004C03A
:0200040023C017
:1000080023C0789408E00EBF0FEF0DBF0FEF07B9BC
:1000180004B90E94350012E121E0D22F20E0C22F5E
:100028005A9A5B9A03E00DBB0FE000936900C22F58
:100038004881142F18B9289A0E942A0028980E94EB
:100048002A00F5CF239518952A95189555E16BE464
:100058007DEB7A95F1F76A95E1F75A95D1F70000AB
:100068000895C0E0D1E040E4499349E7499344E268
:10007800499340E3499349E1499342E1499342E076
:10008800499348E7499340E0499348E149930895E3
:00000001FF
